{
  "contractName": "Data",
  "abi": [
    {
      "inputs": [],
      "stateMutability": "nonpayable",
      "type": "constructor"
    },
    {
      "anonymous": false,
      "inputs": [
        {
          "indexed": true,
          "internalType": "address",
          "name": "previousOwner",
          "type": "address"
        },
        {
          "indexed": true,
          "internalType": "address",
          "name": "newOwner",
          "type": "address"
        }
      ],
      "name": "OwnershipTransferred",
      "type": "event"
    },
    {
      "inputs": [],
      "name": "bigPrize",
      "outputs": [
        {
          "internalType": "uint256",
          "name": "",
          "type": "uint256"
        }
      ],
      "stateMutability": "view",
      "type": "function",
      "constant": true
    },
    {
      "inputs": [
        {
          "internalType": "uint256",
          "name": "",
          "type": "uint256"
        }
      ],
      "name": "openNumberList",
      "outputs": [
        {
          "internalType": "uint256",
          "name": "",
          "type": "uint256"
        }
      ],
      "stateMutability": "view",
      "type": "function",
      "constant": true
    },
    {
      "inputs": [],
      "name": "owner",
      "outputs": [
        {
          "internalType": "address",
          "name": "",
          "type": "address"
        }
      ],
      "stateMutability": "view",
      "type": "function",
      "constant": true
    },
    {
      "inputs": [],
      "name": "renounceOwnership",
      "outputs": [],
      "stateMutability": "nonpayable",
      "type": "function"
    },
    {
      "inputs": [],
      "name": "smallPrize",
      "outputs": [
        {
          "internalType": "uint256",
          "name": "",
          "type": "uint256"
        }
      ],
      "stateMutability": "view",
      "type": "function",
      "constant": true
    },
    {
      "inputs": [
        {
          "internalType": "address",
          "name": "newOwner",
          "type": "address"
        }
      ],
      "name": "transferOwnership",
      "outputs": [],
      "stateMutability": "nonpayable",
      "type": "function"
    },
    {
      "inputs": [],
      "name": "unitPrice",
      "outputs": [
        {
          "internalType": "uint256",
          "name": "",
          "type": "uint256"
        }
      ],
      "stateMutability": "view",
      "type": "function",
      "constant": true
    },
    {
      "inputs": [
        {
          "internalType": "uint256",
          "name": "_bigPrize",
          "type": "uint256"
        },
        {
          "internalType": "uint256",
          "name": "_smallPrize",
          "type": "uint256"
        }
      ],
      "name": "setPrize",
      "outputs": [],
      "stateMutability": "nonpayable",
      "type": "function"
    },
    {
      "inputs": [],
      "name": "getBigPrize",
      "outputs": [
        {
          "internalType": "uint256",
          "name": "",
          "type": "uint256"
        }
      ],
      "stateMutability": "view",
      "type": "function",
      "constant": true
    },
    {
      "inputs": [],
      "name": "getSmallPrize",
      "outputs": [
        {
          "internalType": "uint256",
          "name": "",
          "type": "uint256"
        }
      ],
      "stateMutability": "view",
      "type": "function",
      "constant": true
    },
    {
      "inputs": [
        {
          "internalType": "uint256",
          "name": "_unitPrice",
          "type": "uint256"
        }
      ],
      "name": "setUnitPrice",
      "outputs": [],
      "stateMutability": "nonpayable",
      "type": "function"
    },
    {
      "inputs": [],
      "name": "getUnitPrice",
      "outputs": [
        {
          "internalType": "uint256",
          "name": "",
          "type": "uint256"
        }
      ],
      "stateMutability": "view",
      "type": "function",
      "constant": true
    },
    {
      "inputs": [],
      "name": "getOpenNumberList",
      "outputs": [
        {
          "internalType": "uint256[]",
          "name": "",
          "type": "uint256[]"
        }
      ],
      "stateMutability": "view",
      "type": "function",
      "constant": true
    },
    {
      "inputs": [],
      "name": "getOpenNumberListLength",
      "outputs": [
        {
          "internalType": "uint256",
          "name": "",
          "type": "uint256"
        }
      ],
      "stateMutability": "view",
      "type": "function",
      "constant": true
    },
    {
      "inputs": [
        {
          "internalType": "uint256",
          "name": "number",
          "type": "uint256"
        }
      ],
      "name": "pushOpenNumberList",
      "outputs": [],
      "stateMutability": "nonpayable",
      "type": "function"
    },
    {
      "inputs": [
        {
          "internalType": "address",
          "name": "owner",
          "type": "address"
        },
        {
          "internalType": "uint256",
          "name": "period",
          "type": "uint256"
        }
      ],
      "name": "getSelectedTickets",
      "outputs": [
        {
          "components": [
            {
              "internalType": "address",
              "name": "owner",
              "type": "address"
            },
            {
              "internalType": "uint256",
              "name": "period",
              "type": "uint256"
            },
            {
              "internalType": "uint256",
              "name": "number",
              "type": "uint256"
            },
            {
              "internalType": "uint256",
              "name": "quantity",
              "type": "uint256"
            },
            {
              "internalType": "bytes32",
              "name": "id",
              "type": "bytes32"
            },
            {
              "internalType": "bool",
              "name": "exchangeStatus",
              "type": "bool"
            },
            {
              "internalType": "uint256",
              "name": "winStatus",
              "type": "uint256"
            }
          ],
          "internalType": "struct Data.lotteryInfo[]",
          "name": "",
          "type": "tuple[]"
        }
      ],
      "stateMutability": "view",
      "type": "function",
      "constant": true
    },
    {
      "inputs": [
        {
          "internalType": "address",
          "name": "owner",
          "type": "address"
        },
        {
          "internalType": "uint256",
          "name": "number",
          "type": "uint256"
        },
        {
          "internalType": "bytes32",
          "name": "id",
          "type": "bytes32"
        }
      ],
      "name": "pushTickets",
      "outputs": [],
      "stateMutability": "nonpayable",
      "type": "function"
    },
    {
      "inputs": [
        {
          "internalType": "address",
          "name": "owner",
          "type": "address"
        },
        {
          "internalType": "uint256",
          "name": "number",
          "type": "uint256"
        },
        {
          "internalType": "uint256",
          "name": "quantity",
          "type": "uint256"
        },
        {
          "internalType": "bytes32",
          "name": "id",
          "type": "bytes32"
        }
      ],
      "name": "pushTickets",
      "outputs": [],
      "stateMutability": "nonpayable",
      "type": "function"
    },
    {
      "inputs": [
        {
          "internalType": "address",
          "name": "owner",
          "type": "address"
        },
        {
          "internalType": "uint256",
          "name": "period",
          "type": "uint256"
        },
        {
          "internalType": "uint256",
          "name": "number",
          "type": "uint256"
        },
        {
          "internalType": "uint256",
          "name": "quantity",
          "type": "uint256"
        },
        {
          "internalType": "bytes32",
          "name": "id",
          "type": "bytes32"
        }
      ],
      "name": "pushTickets",
      "outputs": [],
      "stateMutability": "nonpayable",
      "type": "function"
    },
    {
      "inputs": [],
      "name": "getPeriod",
      "outputs": [
        {
          "internalType": "uint256",
          "name": "",
          "type": "uint256"
        }
      ],
      "stateMutability": "view",
      "type": "function",
      "constant": true
    },
    {
      "inputs": [
        {
          "internalType": "address",
          "name": "owner",
          "type": "address"
        },
        {
          "internalType": "uint256",
          "name": "period",
          "type": "uint256"
        },
        {
          "internalType": "uint256",
          "name": "index",
          "type": "uint256"
        },
        {
          "internalType": "bool",
          "name": "status",
          "type": "bool"
        }
      ],
      "name": "setExchangeStatus",
      "outputs": [],
      "stateMutability": "nonpayable",
      "type": "function"
    },
    {
      "inputs": [
        {
          "internalType": "address",
          "name": "owner",
          "type": "address"
        },
        {
          "internalType": "uint256",
          "name": "period",
          "type": "uint256"
        },
        {
          "internalType": "uint256",
          "name": "index",
          "type": "uint256"
        },
        {
          "internalType": "uint256",
          "name": "winStatus",
          "type": "uint256"
        }
      ],
      "name": "setWinStatus",
      "outputs": [],
      "stateMutability": "nonpayable",
      "type": "function"
    },
    {
      "inputs": [
        {
          "internalType": "uint256",
          "name": "period",
          "type": "uint256"
        },
        {
          "internalType": "uint256",
          "name": "count",
          "type": "uint256"
        }
      ],
      "name": "addPlayCount",
      "outputs": [],
      "stateMutability": "nonpayable",
      "type": "function"
    },
    {
      "inputs": [
        {
          "internalType": "uint256",
          "name": "period",
          "type": "uint256"
        },
        {
          "internalType": "uint256",
          "name": "number",
          "type": "uint256"
        }
      ],
      "name": "setLastPlayNumber",
      "outputs": [],
      "stateMutability": "nonpayable",
      "type": "function"
    },
    {
      "inputs": [
        {
          "internalType": "uint256",
          "name": "period",
          "type": "uint256"
        }
      ],
      "name": "getPlayCount",
      "outputs": [
        {
          "internalType": "uint256",
          "name": "",
          "type": "uint256"
        }
      ],
      "stateMutability": "view",
      "type": "function",
      "constant": true
    },
    {
      "inputs": [
        {
          "internalType": "uint256",
          "name": "period",
          "type": "uint256"
        }
      ],
      "name": "getLastPlayNumber",
      "outputs": [
        {
          "internalType": "uint256",
          "name": "",
          "type": "uint256"
        }
      ],
      "stateMutability": "view",
      "type": "function",
      "constant": true
    }
  ],
  "bytecode": "0x608060405234801561001057600080fd5b50600061001b61008c565b600080546001600160a01b0319166001600160a01b0383169081178255604051929350917f8be0079c531659141344cd1fd0a4f28419497f9722a3daafe3b4186f6b6457e0908290a350662386f26fc1000060035567016345785d8a000060015566b1a2bc2ec50000600255610090565b3390565b610d2f8061009f6000396000f3fe608060405234801561001057600080fd5b506004361061018e5760003560e01c806396e5b68c116100de578063d8c4b20a11610097578063e47b58ca11610071578063e47b58ca146102fe578063e73faa2d14610311578063f10a4d7314610319578063f2fde38b1461032c5761018e565b8063d8c4b20a146101e1578063dc1b7328146102d8578063e45e24a7146102eb5761018e565b806396e5b68c1461027c57806399c794101461028f578063b47b24a7146102a2578063b92b19ba146102aa578063ca541d46146102bd578063d75c3ac9146102c55761018e565b806323766d901161014b5780636bb05188116101255780636bb05188146102395780636df037ee1461024c578063715018a61461025f5780638da5cb5b146102675761018e565b806323766d90146101fe57806358c6e9241461021e57806366f165d8146102265761018e565b8063012a33aa1461019357806308a73daa146101b15780630dcda036146101c6578063161da567146101d95780631ed24195146101e15780632038d36a146101e9575b600080fd5b61019b61033f565b6040516101a89190610ccc565b60405180910390f35b6101c46101bf366004610b33565b610345565b005b6101c46101d4366004610aba565b6103c2565b61019b610423565b61019b610429565b6101f161042f565b6040516101a89190610c0d565b61021161020c366004610a14565b610487565b6040516101a89190610b80565b61019b610553565b6101c4610234366004610a3d565b610559565b6101c4610247366004610b4b565b610579565b6101c461025a366004610aba565b6105d9565b6101c46105f9565b61026f610682565b6040516101a89190610b6c565b6101c461028a366004610b4b565b610691565b61019b61029d366004610b33565b6106db565b61019b6106f0565b6101c46102b8366004610b4b565b6106f6565b61019b610763565b61019b6102d3366004610b33565b610769565b6101c46102e6366004610b33565b61077e565b61019b6102f9366004610b33565b6107c2565b6101c461030c366004610af2565b6107e3565b61019b6108a4565b6101c4610327366004610a6f565b6108aa565b6101c461033a3660046109f3565b610918565b60035490565b61034d6109d8565b6001600160a01b031661035e610682565b6001600160a01b03161461038d5760405162461bcd60e51b815260040161038490610c97565b60405180910390fd5b600480546001810182556000919091527f8a35acfbc15ff81a39ae7d344fd709f28e8600b4aa8c65c6b64bfe7fe36bd19b0155565b6001600160a01b0384166000908152600560209081526040808320868452909152902080548291908490811061040857634e487b7160e01b600052603260045260246000fd5b90600052602060002090600702016006018190555050505050565b60015490565b60045490565b6060600480548060200260200160405190810160405280929190818152602001828054801561047d57602002820191906000526020600020905b815481526020019060010190808311610469575b5050505050905090565b6001600160a01b03821660009081526005602090815260408083208484528252808320805482518185028101850190935280835260609492939192909184015b828210156105475760008481526020908190206040805160e0810182526007860290920180546001600160a01b03168352600180820154848601526002820154928401929092526003810154606084015260048101546080840152600581015460ff16151560a08401526006015460c083015290835290920191016104c7565b50505050905092915050565b60015481565b6000610563610429565b90506105738482856001866107e3565b50505050565b60008281526006602052604090206002015460ff166105c057600082815260066020526040812090815560018082018390556002909101805460ff191690911790556105d5565b60008281526006602052604090206001018190555b5050565b60006105e3610429565b90506105f285828686866107e3565b5050505050565b6106016109d8565b6001600160a01b0316610612610682565b6001600160a01b0316146106385760405162461bcd60e51b815260040161038490610c97565b600080546040516001600160a01b03909116907f8be0079c531659141344cd1fd0a4f28419497f9722a3daafe3b4186f6b6457e0908390a3600080546001600160a01b0319169055565b6000546001600160a01b031690565b6106996109d8565b6001600160a01b03166106aa610682565b6001600160a01b0316146106d05760405162461bcd60e51b815260040161038490610c97565b600191909155600255565b6000818152600660205260409020545b919050565b60025490565b60008281526006602052604090206002015460ff1661073c576000828152600660205260408120828155600180820192909255600201805460ff191690911790556105d5565b6000828152600660205260408120805483929061075a908490610cd5565b90915550505050565b60025481565b60009081526006602052604090206001015490565b6107866109d8565b6001600160a01b0316610797610682565b6001600160a01b0316146107bd5760405162461bcd60e51b815260040161038490610c97565b600355565b600481815481106107d257600080fd5b600091825260209091200154905081565b6001600160a01b0394851660008181526005602081815260408084208985528252808420815160e081018352958652858301998a52908501978852606085019687526080850195865260a0850184815260c08601858152825460018082018555938752939095209551600790930290950180546001600160a01b03191692909a16919091178955965196880196909655935160028701559151600386015551600485015551918301805460ff19169215159290921790915551600690910155565b60035481565b6001600160a01b038416600090815260056020908152604080832086845290915290208054829190849081106108f057634e487b7160e01b600052603260045260246000fd5b60009182526020909120600790910201600501805460ff191691151591909117905550505050565b6109206109d8565b6001600160a01b0316610931610682565b6001600160a01b0316146109575760405162461bcd60e51b815260040161038490610c97565b6001600160a01b03811661097d5760405162461bcd60e51b815260040161038490610c51565b600080546040516001600160a01b03808516939216917f8be0079c531659141344cd1fd0a4f28419497f9722a3daafe3b4186f6b6457e091a3600080546001600160a01b0319166001600160a01b0392909216919091179055565b3390565b80356001600160a01b03811681146106eb57600080fd5b600060208284031215610a04578081fd5b610a0d826109dc565b9392505050565b60008060408385031215610a26578081fd5b610a2f836109dc565b946020939093013593505050565b600080600060608486031215610a51578081fd5b610a5a846109dc565b95602085013595506040909401359392505050565b60008060008060808587031215610a84578081fd5b610a8d856109dc565b9350602085013592506040850135915060608501358015158114610aaf578182fd5b939692955090935050565b60008060008060808587031215610acf578384fd5b610ad8856109dc565b966020860135965060408601359560600135945092505050565b600080600080600060a08688031215610b09578081fd5b610b12866109dc565b97602087013597506040870135966060810135965060800135945092505050565b600060208284031215610b44578081fd5b5035919050565b60008060408385031215610b5d578182fd5b50508035926020909101359150565b6001600160a01b0391909116815260200190565b602080825282518282018190526000919060409081850190868401855b82811015610c0057815180516001600160a01b0316855286810151878601528581015186860152606080820151908601526080808201519086015260a08082015115159086015260c0908101519085015260e09093019290850190600101610b9d565b5091979650505050505050565b6020808252825182820181905260009190848201906040850190845b81811015610c4557835183529284019291840191600101610c29565b50909695505050505050565b60208082526026908201527f4f776e61626c653a206e6577206f776e657220697320746865207a65726f206160408201526564647265737360d01b606082015260800190565b6020808252818101527f4f776e61626c653a2063616c6c6572206973206e6f7420746865206f776e6572604082015260600190565b90815260200190565b60008219821115610cf457634e487b7160e01b81526011600452602481fd5b50019056fea2646970667358221220221bad23aa0632d8ad3d149e0b478ea1c20e98fe04e159f055272d8b443fc91064736f6c63430008000033",
  "immutableReferences": {},
  "source": "// SPDX-License-Identifier: MIT\r\npragma solidity ^0.8.0;\r\nimport '@openzeppelin/contracts/access/Ownable.sol';\r\n\r\ncontract Data is Ownable{\r\n    uint256 public bigPrize;//\r\n    uint256 public smallPrize;//\r\n    uint256 public unitPrice;  //\r\n    uint256[] public openNumberList; //\r\n\r\n    struct lotteryInfo {\r\n        address owner; //\r\n        uint period; //\r\n        uint number; //\r\n        uint quantity; //\r\n        bytes32 id; //\r\n        bool exchangeStatus; //  true   false: \r\n        uint winStatus; //  0   1:     2:  \r\n    }\r\n\r\n    mapping(address => mapping(uint =>lotteryInfo[])) ownerTickets; //address :     mappingunit    lotteryInfo[]loteryInfo\r\n\r\n    struct StatisticInfo {\r\n        uint256 count; //\r\n        uint256 lastPlayNumber; //\r\n        bool isVaild;\r\n    }\r\n    mapping(uint =>StatisticInfo) statisticInfo;\r\n\r\n\r\n    constructor() {\r\n        unitPrice = 0.01 ether;\r\n        bigPrize = 0.1 ether;\r\n        smallPrize = 0.05 ether;\r\n    }\r\n    \r\n    //        _bigPrize       _smallPrize\r\n    function setPrize(uint256 _bigPrize,uint256 _smallPrize) public onlyOwner{\r\n        bigPrize = _bigPrize;\r\n        smallPrize = _smallPrize;\r\n    }\r\n\r\n    //\r\n    function getBigPrize() public view returns(uint256) {\r\n        return bigPrize;\r\n    }\r\n\r\n     //\r\n    function getSmallPrize() public view returns(uint256) {\r\n        return smallPrize;\r\n    }\r\n\r\n    //\r\n    function setUnitPrice(uint256 _unitPrice) public onlyOwner{\r\n        unitPrice = _unitPrice;\r\n    }\r\n\r\n    //\r\n    function getUnitPrice() public view returns(uint256) {\r\n        return unitPrice;\r\n    }\r\n\r\n    //\r\n    function getOpenNumberList() public view  returns(uint256[] memory) {\r\n        return openNumberList;\r\n    }\r\n\r\n    //\r\n    function getOpenNumberListLength() public view returns(uint256) {\r\n        return openNumberList.length;\r\n    }\r\n    \r\n    //\r\n    function pushOpenNumberList(uint256 number) public onlyOwner {\r\n        openNumberList.push(number);\r\n    }\r\n\r\n    //     owner    period   \r\n    function getSelectedTickets(address owner,uint256 period) view public returns(lotteryInfo[] memory){\r\n        return ownerTickets[owner][period];\r\n    }\r\n\r\n    //1\r\n    function pushTickets(address owner,uint256 number,bytes32 id) public {\r\n        uint256 period=getPeriod();\r\n        pushTickets(owner, period, number, 1, id);\r\n    }\r\n\r\n    //     number     owner       quantity\r\n    function pushTickets(address owner,uint256 number,uint256 quantity,bytes32 id) public {\r\n        uint256 period=getPeriod();\r\n        pushTickets(owner, period, number, quantity, id);\r\n    }\r\n\r\n    function pushTickets(address owner,uint256 period,uint256 number,uint256 quantity,bytes32 id) public {\r\n        ownerTickets[owner][period].push(lotteryInfo(owner,period,number,quantity,id,false,0));\r\n    }\r\n\r\n    function getPeriod() view public returns(uint256) {\r\n         return openNumberList.length;\r\n     }\r\n\r\n    //\r\n    function setExchangeStatus(address owner,uint256 period,uint256 index,bool status) public {\r\n        ownerTickets[owner][period][index].exchangeStatus=status;\r\n    }\r\n\r\n    //winStatus    0    1      2\r\n    function setWinStatus(address owner,uint256 period,uint256 index,uint winStatus) public {\r\n        ownerTickets[owner][period][index].winStatus=winStatus;\r\n    }\r\n\r\n    function addPlayCount(uint256 period,uint256 count) public {\r\n        if(!statisticInfo[period].isVaild)\r\n        {\r\n            statisticInfo[period].count = count;\r\n             statisticInfo[period].lastPlayNumber = 0;\r\n              statisticInfo[period].isVaild = true;\r\n        }\r\n        else\r\n        {\r\n            statisticInfo[period].count += count;\r\n        }\r\n    }\r\n\r\n    function setLastPlayNumber(uint256 period,uint256 number) public {\r\n        if(!statisticInfo[period].isVaild)\r\n        {\r\n            statisticInfo[period].count = 0;\r\n             statisticInfo[period].lastPlayNumber = number;\r\n              statisticInfo[period].isVaild = true;\r\n        }\r\n        else\r\n        {\r\n            statisticInfo[period].lastPlayNumber = number;\r\n        }\r\n    }\r\n\r\n    function getPlayCount(uint256 period) public view returns(uint256)  {\r\n        return statisticInfo[period].count;\r\n    }\r\n\r\n    function getLastPlayNumber(uint256 period) public view returns(uint256)  {\r\n        return statisticInfo[period].lastPlayNumber;\r\n    }\r\n}",
  "sourcePath": "F:\\testproject\\caipiao\\src\\contracts\\Data.sol",
  "compiler": {
    "name": "solc",
    "version": "0.8.0+commit.c7dfd78e.Emscripten.clang"
  },
  "schemaVersion": "3.4.1",
  "updatedAt": "2021-06-30T10:22:04.824Z",
  "networkType": "ethereum",
  "devdoc": {
    "kind": "dev",
    "methods": {
      "owner()": {
        "details": "Returns the address of the current owner."
      },
      "renounceOwnership()": {
        "details": "Leaves the contract without owner. It will not be possible to call `onlyOwner` functions anymore. Can only be called by the current owner. NOTE: Renouncing ownership will leave the contract without an owner, thereby removing any functionality that is only available to the owner."
      },
      "transferOwnership(address)": {
        "details": "Transfers ownership of the contract to a new account (`newOwner`). Can only be called by the current owner."
      }
    },
    "version": 1
  },
  "userdoc": {
    "kind": "user",
    "methods": {},
    "version": 1
  }
}