{
  "contractName": "Data",
  "abi": [
    {
      "inputs": [],
      "stateMutability": "nonpayable",
      "type": "constructor"
    },
    {
      "anonymous": false,
      "inputs": [
        {
          "indexed": true,
          "internalType": "address",
          "name": "previousOwner",
          "type": "address"
        },
        {
          "indexed": true,
          "internalType": "address",
          "name": "newOwner",
          "type": "address"
        }
      ],
      "name": "OwnershipTransferred",
      "type": "event"
    },
    {
      "inputs": [],
      "name": "bigPrize",
      "outputs": [
        {
          "internalType": "uint256",
          "name": "",
          "type": "uint256"
        }
      ],
      "stateMutability": "view",
      "type": "function",
      "constant": true
    },
    {
      "inputs": [
        {
          "internalType": "uint256",
          "name": "",
          "type": "uint256"
        }
      ],
      "name": "openNumberList",
      "outputs": [
        {
          "internalType": "uint256",
          "name": "",
          "type": "uint256"
        }
      ],
      "stateMutability": "view",
      "type": "function",
      "constant": true
    },
    {
      "inputs": [],
      "name": "owner",
      "outputs": [
        {
          "internalType": "address",
          "name": "",
          "type": "address"
        }
      ],
      "stateMutability": "view",
      "type": "function",
      "constant": true
    },
    {
      "inputs": [],
      "name": "renounceOwnership",
      "outputs": [],
      "stateMutability": "nonpayable",
      "type": "function"
    },
    {
      "inputs": [],
      "name": "smallPrize",
      "outputs": [
        {
          "internalType": "uint256",
          "name": "",
          "type": "uint256"
        }
      ],
      "stateMutability": "view",
      "type": "function",
      "constant": true
    },
    {
      "inputs": [
        {
          "internalType": "address",
          "name": "newOwner",
          "type": "address"
        }
      ],
      "name": "transferOwnership",
      "outputs": [],
      "stateMutability": "nonpayable",
      "type": "function"
    },
    {
      "inputs": [],
      "name": "unitPrice",
      "outputs": [
        {
          "internalType": "uint256",
          "name": "",
          "type": "uint256"
        }
      ],
      "stateMutability": "view",
      "type": "function",
      "constant": true
    },
    {
      "inputs": [
        {
          "internalType": "uint256",
          "name": "_bigPrize",
          "type": "uint256"
        },
        {
          "internalType": "uint256",
          "name": "_smallPrize",
          "type": "uint256"
        }
      ],
      "name": "setPrize",
      "outputs": [],
      "stateMutability": "nonpayable",
      "type": "function"
    },
    {
      "inputs": [],
      "name": "getBigPrize",
      "outputs": [
        {
          "internalType": "uint256",
          "name": "",
          "type": "uint256"
        }
      ],
      "stateMutability": "view",
      "type": "function",
      "constant": true
    },
    {
      "inputs": [],
      "name": "getSmallPrize",
      "outputs": [
        {
          "internalType": "uint256",
          "name": "",
          "type": "uint256"
        }
      ],
      "stateMutability": "view",
      "type": "function",
      "constant": true
    },
    {
      "inputs": [
        {
          "internalType": "uint256",
          "name": "_unitPrice",
          "type": "uint256"
        }
      ],
      "name": "setUnitPrice",
      "outputs": [],
      "stateMutability": "nonpayable",
      "type": "function"
    },
    {
      "inputs": [],
      "name": "getUnitPrice",
      "outputs": [
        {
          "internalType": "uint256",
          "name": "",
          "type": "uint256"
        }
      ],
      "stateMutability": "view",
      "type": "function",
      "constant": true
    },
    {
      "inputs": [],
      "name": "getOpenNumberList",
      "outputs": [
        {
          "internalType": "uint256[]",
          "name": "",
          "type": "uint256[]"
        }
      ],
      "stateMutability": "view",
      "type": "function",
      "constant": true
    },
    {
      "inputs": [],
      "name": "getOpenNumberListLength",
      "outputs": [
        {
          "internalType": "uint256",
          "name": "",
          "type": "uint256"
        }
      ],
      "stateMutability": "view",
      "type": "function",
      "constant": true
    },
    {
      "inputs": [
        {
          "internalType": "uint256",
          "name": "number",
          "type": "uint256"
        }
      ],
      "name": "pushOpenNumberList",
      "outputs": [],
      "stateMutability": "nonpayable",
      "type": "function"
    },
    {
      "inputs": [
        {
          "internalType": "address",
          "name": "owner",
          "type": "address"
        },
        {
          "internalType": "uint256",
          "name": "period",
          "type": "uint256"
        }
      ],
      "name": "getSelectedTickets",
      "outputs": [
        {
          "components": [
            {
              "internalType": "address",
              "name": "owner",
              "type": "address"
            },
            {
              "internalType": "uint256",
              "name": "period",
              "type": "uint256"
            },
            {
              "internalType": "uint256",
              "name": "number",
              "type": "uint256"
            },
            {
              "internalType": "uint256",
              "name": "quantity",
              "type": "uint256"
            },
            {
              "internalType": "bytes32",
              "name": "id",
              "type": "bytes32"
            },
            {
              "internalType": "bool",
              "name": "exchangeStatus",
              "type": "bool"
            },
            {
              "internalType": "uint256",
              "name": "winStatus",
              "type": "uint256"
            }
          ],
          "internalType": "struct Data.lotteryInfo[]",
          "name": "",
          "type": "tuple[]"
        }
      ],
      "stateMutability": "view",
      "type": "function",
      "constant": true
    },
    {
      "inputs": [
        {
          "internalType": "address",
          "name": "owner",
          "type": "address"
        },
        {
          "internalType": "uint256",
          "name": "number",
          "type": "uint256"
        },
        {
          "internalType": "bytes32",
          "name": "id",
          "type": "bytes32"
        }
      ],
      "name": "pushTickets",
      "outputs": [],
      "stateMutability": "nonpayable",
      "type": "function"
    },
    {
      "inputs": [
        {
          "internalType": "address",
          "name": "owner",
          "type": "address"
        },
        {
          "internalType": "uint256",
          "name": "number",
          "type": "uint256"
        },
        {
          "internalType": "uint256",
          "name": "quantity",
          "type": "uint256"
        },
        {
          "internalType": "bytes32",
          "name": "id",
          "type": "bytes32"
        }
      ],
      "name": "pushTickets",
      "outputs": [],
      "stateMutability": "nonpayable",
      "type": "function"
    },
    {
      "inputs": [
        {
          "internalType": "address",
          "name": "owner",
          "type": "address"
        },
        {
          "internalType": "uint256",
          "name": "period",
          "type": "uint256"
        },
        {
          "internalType": "uint256",
          "name": "number",
          "type": "uint256"
        },
        {
          "internalType": "uint256",
          "name": "quantity",
          "type": "uint256"
        },
        {
          "internalType": "bytes32",
          "name": "id",
          "type": "bytes32"
        }
      ],
      "name": "pushTickets",
      "outputs": [],
      "stateMutability": "nonpayable",
      "type": "function"
    },
    {
      "inputs": [],
      "name": "getPeriod",
      "outputs": [
        {
          "internalType": "uint256",
          "name": "",
          "type": "uint256"
        }
      ],
      "stateMutability": "view",
      "type": "function",
      "constant": true
    },
    {
      "inputs": [
        {
          "internalType": "address",
          "name": "owner",
          "type": "address"
        },
        {
          "internalType": "uint256",
          "name": "period",
          "type": "uint256"
        },
        {
          "internalType": "uint256",
          "name": "index",
          "type": "uint256"
        },
        {
          "internalType": "bool",
          "name": "status",
          "type": "bool"
        }
      ],
      "name": "setExchangeStatus",
      "outputs": [],
      "stateMutability": "nonpayable",
      "type": "function"
    },
    {
      "inputs": [
        {
          "internalType": "address",
          "name": "owner",
          "type": "address"
        },
        {
          "internalType": "uint256",
          "name": "period",
          "type": "uint256"
        },
        {
          "internalType": "uint256",
          "name": "index",
          "type": "uint256"
        },
        {
          "internalType": "uint256",
          "name": "winStatus",
          "type": "uint256"
        }
      ],
      "name": "setWinStatus",
      "outputs": [],
      "stateMutability": "nonpayable",
      "type": "function"
    }
  ],
  "bytecode": "0x608060405234801561001057600080fd5b50600061001b61008c565b600080546001600160a01b0319166001600160a01b0383169081178255604051929350917f8be0079c531659141344cd1fd0a4f28419497f9722a3daafe3b4186f6b6457e0908290a350662386f26fc1000060035567016345785d8a000060015566b1a2bc2ec50000600255610090565b3390565b610b818061009f6000396000f3fe608060405234801561001057600080fd5b50600436106101425760003560e01c80638da5cb5b116100b8578063dc1b73281161007c578063dc1b732814610240578063e45e24a714610253578063e47b58ca14610266578063e73faa2d14610279578063f10a4d7314610281578063f2fde38b1461029457610142565b80638da5cb5b1461020857806396e5b68c1461021d578063b47b24a714610230578063ca541d4614610238578063d8c4b20a1461019557610142565b80632038d36a1161010a5780632038d36a1461019d57806323766d90146101b257806358c6e924146101d257806366f165d8146101da5780636df037ee146101ed578063715018a61461020057610142565b8063012a33aa1461014757806308a73daa146101655780630dcda0361461017a578063161da5671461018d5780631ed2419514610195575b600080fd5b61014f6102a7565b60405161015c9190610b42565b60405180910390f35b6101786101733660046109a9565b6102ad565b005b610178610188366004610930565b61032a565b61014f61038b565b61014f610391565b6101a5610397565b60405161015c9190610a83565b6101c56101c036600461088a565b6103ef565b60405161015c91906109f6565b61014f6104bb565b6101786101e83660046108b3565b6104c1565b6101786101fb366004610930565b6104e1565b610178610501565b61021061058a565b60405161015c91906109e2565b61017861022b3660046109c1565b610599565b61014f6105e3565b61014f6105e9565b61017861024e3660046109a9565b6105ef565b61014f6102613660046109a9565b610633565b610178610274366004610968565b610654565b61014f610715565b61017861028f3660046108e5565b61071b565b6101786102a2366004610869565b610789565b60035490565b6102b5610849565b6001600160a01b03166102c661058a565b6001600160a01b0316146102f55760405162461bcd60e51b81526004016102ec90610b0d565b60405180910390fd5b600480546001810182556000919091527f8a35acfbc15ff81a39ae7d344fd709f28e8600b4aa8c65c6b64bfe7fe36bd19b0155565b6001600160a01b0384166000908152600560209081526040808320868452909152902080548291908490811061037057634e487b7160e01b600052603260045260246000fd5b90600052602060002090600702016006018190555050505050565b60015490565b60045490565b606060048054806020026020016040519081016040528092919081815260200182805480156103e557602002820191906000526020600020905b8154815260200190600101908083116103d1575b5050505050905090565b6001600160a01b03821660009081526005602090815260408083208484528252808320805482518185028101850190935280835260609492939192909184015b828210156104af5760008481526020908190206040805160e0810182526007860290920180546001600160a01b03168352600180820154848601526002820154928401929092526003810154606084015260048101546080840152600581015460ff16151560a08401526006015460c0830152908352909201910161042f565b50505050905092915050565b60015481565b60006104cb610391565b90506104db848285600186610654565b50505050565b60006104eb610391565b90506104fa8582868686610654565b5050505050565b610509610849565b6001600160a01b031661051a61058a565b6001600160a01b0316146105405760405162461bcd60e51b81526004016102ec90610b0d565b600080546040516001600160a01b03909116907f8be0079c531659141344cd1fd0a4f28419497f9722a3daafe3b4186f6b6457e0908390a3600080546001600160a01b0319169055565b6000546001600160a01b031690565b6105a1610849565b6001600160a01b03166105b261058a565b6001600160a01b0316146105d85760405162461bcd60e51b81526004016102ec90610b0d565b600191909155600255565b60025490565b60025481565b6105f7610849565b6001600160a01b031661060861058a565b6001600160a01b03161461062e5760405162461bcd60e51b81526004016102ec90610b0d565b600355565b6004818154811061064357600080fd5b600091825260209091200154905081565b6001600160a01b0394851660008181526005602081815260408084208985528252808420815160e081018352958652858301998a52908501978852606085019687526080850195865260a0850184815260c08601858152825460018082018555938752939095209551600790930290950180546001600160a01b03191692909a16919091178955965196880196909655935160028701559151600386015551600485015551918301805460ff19169215159290921790915551600690910155565b60035481565b6001600160a01b0384166000908152600560209081526040808320868452909152902080548291908490811061076157634e487b7160e01b600052603260045260246000fd5b60009182526020909120600790910201600501805460ff191691151591909117905550505050565b610791610849565b6001600160a01b03166107a261058a565b6001600160a01b0316146107c85760405162461bcd60e51b81526004016102ec90610b0d565b6001600160a01b0381166107ee5760405162461bcd60e51b81526004016102ec90610ac7565b600080546040516001600160a01b03808516939216917f8be0079c531659141344cd1fd0a4f28419497f9722a3daafe3b4186f6b6457e091a3600080546001600160a01b0319166001600160a01b0392909216919091179055565b3390565b80356001600160a01b038116811461086457600080fd5b919050565b60006020828403121561087a578081fd5b6108838261084d565b9392505050565b6000806040838503121561089c578081fd5b6108a58361084d565b946020939093013593505050565b6000806000606084860312156108c7578081fd5b6108d08461084d565b95602085013595506040909401359392505050565b600080600080608085870312156108fa578081fd5b6109038561084d565b9350602085013592506040850135915060608501358015158114610925578182fd5b939692955090935050565b60008060008060808587031215610945578384fd5b61094e8561084d565b966020860135965060408601359560600135945092505050565b600080600080600060a0868803121561097f578081fd5b6109888661084d565b97602087013597506040870135966060810135965060800135945092505050565b6000602082840312156109ba578081fd5b5035919050565b600080604083850312156109d3578182fd5b50508035926020909101359150565b6001600160a01b0391909116815260200190565b602080825282518282018190526000919060409081850190868401855b82811015610a7657815180516001600160a01b0316855286810151878601528581015186860152606080820151908601526080808201519086015260a08082015115159086015260c0908101519085015260e09093019290850190600101610a13565b5091979650505050505050565b6020808252825182820181905260009190848201906040850190845b81811015610abb57835183529284019291840191600101610a9f565b50909695505050505050565b60208082526026908201527f4f776e61626c653a206e6577206f776e657220697320746865207a65726f206160408201526564647265737360d01b606082015260800190565b6020808252818101527f4f776e61626c653a2063616c6c6572206973206e6f7420746865206f776e6572604082015260600190565b9081526020019056fea264697066735822122013aec6b9a11c8e7074fbb554590005cf1d5ef458d62b5840ae1240316a35b21264736f6c63430008000033",
  "immutableReferences": {},
  "source": "// SPDX-License-Identifier: MIT\r\npragma solidity ^0.8.0;\r\nimport '@openzeppelin/contracts/access/Ownable.sol';\r\n\r\ncontract Data is Ownable{\r\n    uint256 public bigPrize;//\r\n    uint256 public smallPrize;//\r\n    uint256 public unitPrice;  //\r\n    uint256[] public openNumberList; //\r\n\r\n    struct lotteryInfo {\r\n        address owner; //\r\n        uint period; //\r\n        uint number; //\r\n        uint quantity; //\r\n        bytes32 id; //\r\n        bool exchangeStatus; //  true   false: \r\n        uint winStatus; //  0   1:     2:  \r\n    }\r\n\r\n    mapping(address => mapping(uint =>lotteryInfo[])) ownerTickets; //address :     mappingunit    lotteryInfo[]loteryInfo\r\n\r\n    constructor() {\r\n        unitPrice = 0.01 ether;\r\n        bigPrize = 0.1 ether;\r\n        smallPrize = 0.05 ether;\r\n    }\r\n    \r\n    //        _bigPrize       _smallPrize\r\n    function setPrize(uint256 _bigPrize,uint256 _smallPrize) public onlyOwner{\r\n        bigPrize = _bigPrize;\r\n        smallPrize = _smallPrize;\r\n    }\r\n\r\n    //\r\n    function getBigPrize() public view returns(uint256) {\r\n        return bigPrize;\r\n    }\r\n\r\n     //\r\n    function getSmallPrize() public view returns(uint256) {\r\n        return smallPrize;\r\n    }\r\n\r\n    //\r\n    function setUnitPrice(uint256 _unitPrice) public onlyOwner{\r\n        unitPrice = _unitPrice;\r\n    }\r\n\r\n    //\r\n    function getUnitPrice() public view returns(uint256) {\r\n        return unitPrice;\r\n    }\r\n\r\n    //\r\n    function getOpenNumberList() public view  returns(uint256[] memory) {\r\n        return openNumberList;\r\n    }\r\n\r\n    //\r\n    function getOpenNumberListLength() public view returns(uint256) {\r\n        return openNumberList.length;\r\n    }\r\n    \r\n    //\r\n    function pushOpenNumberList(uint256 number) public onlyOwner {\r\n        openNumberList.push(number);\r\n    }\r\n\r\n    //     owner    period   \r\n    function getSelectedTickets(address owner,uint256 period) view public returns(lotteryInfo[] memory){\r\n        return ownerTickets[owner][period];\r\n    }\r\n\r\n    //1\r\n    function pushTickets(address owner,uint256 number,bytes32 id) public {\r\n        uint256 period=getPeriod();\r\n        pushTickets(owner, period, number, 1, id);\r\n    }\r\n\r\n    //     number     owner       quantity\r\n    function pushTickets(address owner,uint256 number,uint256 quantity,bytes32 id) public {\r\n        uint256 period=getPeriod();\r\n        pushTickets(owner, period, number, quantity, id);\r\n    }\r\n\r\n    function pushTickets(address owner,uint256 period,uint256 number,uint256 quantity,bytes32 id) public {\r\n        ownerTickets[owner][period].push(lotteryInfo(owner,period,number,quantity,id,false,0));\r\n    }\r\n\r\n    function getPeriod() view public returns(uint256) {\r\n         return openNumberList.length;\r\n     }\r\n\r\n    //\r\n    function setExchangeStatus(address owner,uint256 period,uint256 index,bool status) public {\r\n        ownerTickets[owner][period][index].exchangeStatus=status;\r\n    }\r\n\r\n    //winStatus    0    1      2\r\n    function setWinStatus(address owner,uint256 period,uint256 index,uint winStatus) public {\r\n        ownerTickets[owner][period][index].winStatus=winStatus;\r\n    }\r\n}",
  "sourcePath": "F:/testproject/caipiao/src/contracts/Data.sol",
  "compiler": {
    "name": "solc",
    "version": "0.8.0+commit.c7dfd78e.Emscripten.clang"
  },
  "schemaVersion": "3.4.1",
  "updatedAt": "2021-06-29T10:05:12.677Z",
  "networkType": "ethereum",
  "devdoc": {
    "kind": "dev",
    "methods": {
      "owner()": {
        "details": "Returns the address of the current owner."
      },
      "renounceOwnership()": {
        "details": "Leaves the contract without owner. It will not be possible to call `onlyOwner` functions anymore. Can only be called by the current owner. NOTE: Renouncing ownership will leave the contract without an owner, thereby removing any functionality that is only available to the owner."
      },
      "transferOwnership(address)": {
        "details": "Transfers ownership of the contract to a new account (`newOwner`). Can only be called by the current owner."
      }
    },
    "version": 1
  },
  "userdoc": {
    "kind": "user",
    "methods": {},
    "version": 1
  }
}