{
  "contractName": "Lottery",
  "abi": [
    {
      "inputs": [
        {
          "internalType": "address",
          "name": "dataContractAddress",
          "type": "address"
        }
      ],
      "stateMutability": "nonpayable",
      "type": "constructor"
    },
    {
      "anonymous": false,
      "inputs": [
        {
          "indexed": false,
          "internalType": "uint256",
          "name": "number",
          "type": "uint256"
        }
      ],
      "name": "GetDraw",
      "type": "event"
    },
    {
      "anonymous": false,
      "inputs": [
        {
          "indexed": false,
          "internalType": "address",
          "name": "owner",
          "type": "address"
        },
        {
          "indexed": false,
          "internalType": "uint256",
          "name": "number",
          "type": "uint256"
        },
        {
          "indexed": false,
          "internalType": "uint256",
          "name": "quantity",
          "type": "uint256"
        },
        {
          "indexed": false,
          "internalType": "uint256",
          "name": "prize",
          "type": "uint256"
        }
      ],
      "name": "GetExchange",
      "type": "event"
    },
    {
      "anonymous": false,
      "inputs": [
        {
          "indexed": false,
          "internalType": "address",
          "name": "owner",
          "type": "address"
        },
        {
          "indexed": false,
          "internalType": "uint256",
          "name": "number",
          "type": "uint256"
        },
        {
          "indexed": false,
          "internalType": "uint256",
          "name": "qDuantity",
          "type": "uint256"
        },
        {
          "indexed": false,
          "internalType": "bytes32",
          "name": "id",
          "type": "bytes32"
        }
      ],
      "name": "GetPlay",
      "type": "event"
    },
    {
      "anonymous": false,
      "inputs": [
        {
          "indexed": true,
          "internalType": "address",
          "name": "previousOwner",
          "type": "address"
        },
        {
          "indexed": true,
          "internalType": "address",
          "name": "newOwner",
          "type": "address"
        }
      ],
      "name": "OwnershipTransferred",
      "type": "event"
    },
    {
      "inputs": [],
      "name": "owner",
      "outputs": [
        {
          "internalType": "address",
          "name": "",
          "type": "address"
        }
      ],
      "stateMutability": "view",
      "type": "function",
      "constant": true
    },
    {
      "inputs": [],
      "name": "pauseStatus",
      "outputs": [
        {
          "internalType": "bool",
          "name": "",
          "type": "bool"
        }
      ],
      "stateMutability": "view",
      "type": "function",
      "constant": true
    },
    {
      "inputs": [],
      "name": "renounceOwnership",
      "outputs": [],
      "stateMutability": "nonpayable",
      "type": "function"
    },
    {
      "stateMutability": "payable",
      "type": "receive",
      "payable": true
    },
    {
      "inputs": [],
      "name": "transferOwnership",
      "outputs": [],
      "stateMutability": "nonpayable",
      "type": "function"
    },
    {
      "inputs": [
        {
          "internalType": "address",
          "name": "newOwner",
          "type": "address"
        }
      ],
      "name": "transferOwnership",
      "outputs": [],
      "stateMutability": "nonpayable",
      "type": "function"
    },
    {
      "inputs": [],
      "name": "getbalance",
      "outputs": [
        {
          "internalType": "uint256",
          "name": "",
          "type": "uint256"
        }
      ],
      "stateMutability": "view",
      "type": "function",
      "constant": true
    },
    {
      "inputs": [
        {
          "internalType": "bool",
          "name": "_pauseStatus",
          "type": "bool"
        }
      ],
      "name": "setPaused",
      "outputs": [],
      "stateMutability": "nonpayable",
      "type": "function"
    },
    {
      "inputs": [
        {
          "internalType": "uint256",
          "name": "unitPrice",
          "type": "uint256"
        }
      ],
      "name": "setUnitPrice",
      "outputs": [],
      "stateMutability": "nonpayable",
      "type": "function"
    },
    {
      "inputs": [],
      "name": "getUnitPrice",
      "outputs": [
        {
          "internalType": "uint256",
          "name": "",
          "type": "uint256"
        }
      ],
      "stateMutability": "view",
      "type": "function",
      "constant": true
    },
    {
      "inputs": [
        {
          "internalType": "uint256",
          "name": "bigPrize",
          "type": "uint256"
        },
        {
          "internalType": "uint256",
          "name": "smallPrize",
          "type": "uint256"
        }
      ],
      "name": "setPrize",
      "outputs": [],
      "stateMutability": "nonpayable",
      "type": "function"
    },
    {
      "inputs": [],
      "name": "getBigPrize",
      "outputs": [
        {
          "internalType": "uint256",
          "name": "",
          "type": "uint256"
        }
      ],
      "stateMutability": "view",
      "type": "function",
      "constant": true
    },
    {
      "inputs": [],
      "name": "getSmallPrize",
      "outputs": [
        {
          "internalType": "uint256",
          "name": "",
          "type": "uint256"
        }
      ],
      "stateMutability": "view",
      "type": "function",
      "constant": true
    },
    {
      "inputs": [
        {
          "internalType": "uint256",
          "name": "period",
          "type": "uint256"
        }
      ],
      "name": "getSelectedTickets",
      "outputs": [
        {
          "components": [
            {
              "internalType": "address",
              "name": "owner",
              "type": "address"
            },
            {
              "internalType": "uint256",
              "name": "period",
              "type": "uint256"
            },
            {
              "internalType": "uint256",
              "name": "number",
              "type": "uint256"
            },
            {
              "internalType": "uint256",
              "name": "quantity",
              "type": "uint256"
            },
            {
              "internalType": "bytes32",
              "name": "id",
              "type": "bytes32"
            },
            {
              "internalType": "bool",
              "name": "exchangeStatus",
              "type": "bool"
            },
            {
              "internalType": "uint256",
              "name": "winStatus",
              "type": "uint256"
            }
          ],
          "internalType": "struct Data.lotteryInfo[]",
          "name": "",
          "type": "tuple[]"
        }
      ],
      "stateMutability": "view",
      "type": "function",
      "constant": true
    },
    {
      "inputs": [],
      "name": "getOpenNumberList",
      "outputs": [
        {
          "internalType": "uint256[]",
          "name": "",
          "type": "uint256[]"
        }
      ],
      "stateMutability": "view",
      "type": "function",
      "constant": true
    },
    {
      "inputs": [
        {
          "internalType": "uint256",
          "name": "quantity",
          "type": "uint256"
        }
      ],
      "name": "playRandom",
      "outputs": [],
      "stateMutability": "payable",
      "type": "function",
      "payable": true
    },
    {
      "inputs": [
        {
          "internalType": "uint256",
          "name": "number",
          "type": "uint256"
        },
        {
          "internalType": "uint256",
          "name": "quantity",
          "type": "uint256"
        }
      ],
      "name": "play",
      "outputs": [
        {
          "internalType": "uint256",
          "name": "",
          "type": "uint256"
        }
      ],
      "stateMutability": "payable",
      "type": "function",
      "payable": true
    },
    {
      "inputs": [],
      "name": "draw",
      "outputs": [],
      "stateMutability": "nonpayable",
      "type": "function"
    },
    {
      "inputs": [
        {
          "internalType": "uint256",
          "name": "number",
          "type": "uint256"
        },
        {
          "internalType": "uint256",
          "name": "period",
          "type": "uint256"
        }
      ],
      "name": "exchange",
      "outputs": [
        {
          "internalType": "uint256",
          "name": "",
          "type": "uint256"
        }
      ],
      "stateMutability": "nonpayable",
      "type": "function"
    },
    {
      "inputs": [
        {
          "internalType": "uint256",
          "name": "period",
          "type": "uint256"
        },
        {
          "internalType": "uint256",
          "name": "number",
          "type": "uint256"
        }
      ],
      "name": "setTicketTemp",
      "outputs": [],
      "stateMutability": "nonpayable",
      "type": "function"
    }
  ],
  "bytecode": "0x608060405234801561001057600080fd5b5060405162001c0738038062001c07833981016040819052610031916100ae565b600061003b6100aa565b600080546001600160a01b0319166001600160a01b0383169081178255604051929350917f8be0079c531659141344cd1fd0a4f28419497f9722a3daafe3b4186f6b6457e0908290a350600180546001600160a81b0319166001600160a01b03929092169190911790556100dc565b3390565b6000602082840312156100bf578081fd5b81516001600160a01b03811681146100d5578182fd5b9392505050565b611b1b80620000ec6000396000f3fe6080604052600436106101185760003560e01c80635221cade116100a057806396e5b68c1161006457806396e5b68c146102b3578063b47b24a7146102d3578063d4b7eac3146102e8578063dc1b732814610308578063f2fde38b146103285761011f565b80635221cade14610227578063715018a6146102545780637bc49a9514610269578063880ad0af1461027c5780638da5cb5b146102915761011f565b806316c38b3c116100e757806316c38b3c1461019b5780632038d36a146101bb57806321cccdfb146101dd578063466916ca146101f05780634d9b3d5d146102125761011f565b8063012a33aa1461012457806309e4bc371461014f5780630eecae2114610171578063161da567146101865761011f565b3661011f57005b600080fd5b34801561013057600080fd5b50610139610348565b604051610146919061199e565b60405180910390f35b34801561015b57600080fd5b5061016f61016a3660046116cf565b6103c9565b005b34801561017d57600080fd5b5061016f61047f565b34801561019257600080fd5b506101396105c6565b3480156101a757600080fd5b5061016f6101b6366004611683565b61060b565b3480156101c757600080fd5b506101d0610668565b604051610146919061186f565b61016f6101eb36600461169f565b6106fc565b3480156101fc57600080fd5b506102056108d6565b60405161014691906118b3565b34801561021e57600080fd5b506101396108e6565b34801561023357600080fd5b5061024761024236600461169f565b6108ea565b60405161014691906117e2565b34801561026057600080fd5b5061016f610979565b6101396102773660046116cf565b610a02565b34801561028857600080fd5b5061016f610b64565b34801561029d57600080fd5b506102a6610c07565b6040516101469190611718565b3480156102bf57600080fd5b5061016f6102ce3660046116cf565b610c16565b3480156102df57600080fd5b50610139610c87565b3480156102f457600080fd5b506101396103033660046116cf565b610ccc565b34801561031457600080fd5b5061016f61032336600461169f565b611338565b34801561033457600080fd5b5061016f6103433660046114b6565b6113dc565b60015460408051629519d560e11b815290516000926001600160a01b03169163012a33aa916004808301926020929190829003018186803b15801561038c57600080fd5b505afa1580156103a0573d6000803e3d6000fd5b505050506040513d601f19601f820116820180604052508101906103c491906116b7565b905090565b6103d161149c565b6001600160a01b03166103e2610c07565b6001600160a01b0316146104115760405162461bcd60e51b815260040161040890611969565b60405180910390fd5b6001805460405163723dac6560e11b81526001600160a01b039091169163e47b58ca91610449913391879187916000906004016117b4565b600060405180830381600087803b15801561046357600080fd5b505af1158015610477573d6000803e3d6000fd5b505050505050565b61048761149c565b6001600160a01b0316610498610c07565b6001600160a01b0316146104be5760405162461bcd60e51b815260040161040890611969565b600154600160a01b900460ff16156104e85760405162461bcd60e51b815260040161040890611932565b60004244336040516020016104ff939291906116f0565b60408051601f1981840301815291905280516020820120909150600061052761271083611a69565b6001546040516304539ed560e11b81529192506001600160a01b0316906308a73daa9061055890849060040161199e565b600060405180830381600087803b15801561057257600080fd5b505af1158015610586573d6000803e3d6000fd5b505050507fd2f59da2a0350ef4fefbb544f2c2b502644c53d25f788cc3c47afaeb13b85a74816040516105b9919061199e565b60405180910390a1505050565b6001546040805163161da56760e01b815290516000926001600160a01b03169163161da567916004808301926020929190829003018186803b15801561038c57600080fd5b61061361149c565b6001600160a01b0316610624610c07565b6001600160a01b03161461064a5760405162461bcd60e51b815260040161040890611969565b60018054911515600160a01b0260ff60a01b19909216919091179055565b60606000600160009054906101000a90046001600160a01b03166001600160a01b0316632038d36a6040518163ffffffff1660e01b815260040160006040518083038186803b1580156106ba57600080fd5b505afa1580156106ce573d6000803e3d6000fd5b505050506040513d6000823e601f3d908101601f191682016040526106f691908101906115f3565b91505090565b600154600160a01b900460ff16156107265760405162461bcd60e51b815260040161040890611932565b60015460408051629519d560e11b815290516000926001600160a01b03169163012a33aa916004808301926020929190829003018186803b15801561076a57600080fd5b505afa15801561077e573d6000803e3d6000fd5b505050506040513d601f19601f820116820180604052508101906107a291906116b7565b90506107ae8282611a2f565b34146107cc5760405162461bcd60e51b815260040161040890611904565b60005b828110156108d15760004244336040516020016107ee939291906116f0565b60408051601f1981840301815291905280516020820120909150600061081661271083611a69565b600154604051630cde2cbb60e31b81529192506001600160a01b0316906366f165d89061084b90339085908790600401611745565b600060405180830381600087803b15801561086557600080fd5b505af1158015610879573d6000803e3d6000fd5b505050507f7b46f9988ac820519d2b7463528e428c1bb962ce12a8f5f3eaa1faa7a1930f2833826001856040516108b39493929190611766565b60405180910390a150505080806108c990611a4e565b9150506107cf565b505050565b600154600160a01b900460ff1681565b4790565b60015460405163023766d960e41b81526060916001600160a01b0316906323766d909061091d903390869060040161172c565b60006040518083038186803b15801561093557600080fd5b505afa158015610949573d6000803e3d6000fd5b505050506040513d6000823e601f3d908101601f1916820160405261097191908101906114d9565b90505b919050565b61098161149c565b6001600160a01b0316610992610c07565b6001600160a01b0316146109b85760405162461bcd60e51b815260040161040890611969565b600080546040516001600160a01b03909116907f8be0079c531659141344cd1fd0a4f28419497f9722a3daafe3b4186f6b6457e0908390a3600080546001600160a01b0319169055565b600080600160009054906101000a90046001600160a01b03166001600160a01b031663012a33aa6040518163ffffffff1660e01b815260040160206040518083038186803b158015610a5357600080fd5b505afa158015610a67573d6000803e3d6000fd5b505050506040513d601f19601f82011682018060405250810190610a8b91906116b7565b9050610a978382611a2f565b3414610ab55760405162461bcd60e51b815260040161040890611904565b6001546040516336f81bf760e11b81526001600160a01b0390911690636df037ee90610aec90339088908890600090600401611766565b600060405180830381600087803b158015610b0657600080fd5b505af1158015610b1a573d6000803e3d6000fd5b505050507f7b46f9988ac820519d2b7463528e428c1bb962ce12a8f5f3eaa1faa7a1930f283385856000604051610b549493929190611766565b60405180910390a1509192915050565b610b6c61149c565b6001600160a01b0316610b7d610c07565b6001600160a01b031614610ba35760405162461bcd60e51b815260040161040890611969565b60015460405163f2fde38b60e01b81526001600160a01b039091169063f2fde38b90610bd3903390600401611718565b600060405180830381600087803b158015610bed57600080fd5b505af1158015610c01573d6000803e3d6000fd5b50505050565b6000546001600160a01b031690565b610c1e61149c565b6001600160a01b0316610c2f610c07565b6001600160a01b031614610c555760405162461bcd60e51b815260040161040890611969565b6001546040516325b96da360e21b81526001600160a01b03909116906396e5b68c9061044990859085906004016119a7565b6001546040805163b47b24a760e01b815290516000926001600160a01b03169163b47b24a7916004808301926020929190829003018186803b15801561038c57600080fd5b600154600090600160a01b900460ff1615610cf95760405162461bcd60e51b815260040161040890611932565b6001546040805163101c69b560e11b815290516000926001600160a01b031691632038d36a9160048083019286929190829003018186803b158015610d3d57600080fd5b505afa158015610d51573d6000803e3d6000fd5b505050506040513d6000823e601f3d908101601f19168201604052610d7991908101906115f3565b90506000818481518110610d9d57634e487b7160e01b600052603260045260246000fd5b602002602001015190506000600160009054906101000a90046001600160a01b03166001600160a01b031663161da5676040518163ffffffff1660e01b815260040160206040518083038186803b158015610df757600080fd5b505afa158015610e0b573d6000803e3d6000fd5b505050506040513d601f19601f82011682018060405250810190610e2f91906116b7565b90506000600160009054906101000a90046001600160a01b03166001600160a01b031663b47b24a76040518163ffffffff1660e01b815260040160206040518083038186803b158015610e8157600080fd5b505afa158015610e95573d6000803e3d6000fd5b505050506040513d601f19601f82011682018060405250810190610eb991906116b7565b60015460405163023766d960e41b815291925060009182916001600160a01b0316906323766d9090610ef19033908c9060040161172c565b60006040518083038186803b158015610f0957600080fd5b505afa158015610f1d573d6000803e3d6000fd5b505050506040513d6000823e601f3d908101601f19168201604052610f4591908101906114d9565b905060005b815181101561132a576000828281518110610f7557634e487b7160e01b600052603260045260246000fd5b60200260200101516040015190508a81141561131657828281518110610fab57634e487b7160e01b600052603260045260246000fd5b602002602001015160a0015115610fc25750611318565b6001805460405163f10a4d7360e01b81526001600160a01b039091169163f10a4d7391610ff79133918f91889160040161178c565b600060405180830381600087803b15801561101157600080fd5b505af1158015611025573d6000803e3d6000fd5b50505050868b141561119157600083838151811061105357634e487b7160e01b600052603260045260246000fd5b6020026020010151606001518761106a9190611a2f565b604051909150339082156108fc029083906000818181858888f1935050505015801561109a573d6000803e3d6000fd5b50600160009054906101000a90046001600160a01b03166001600160a01b0316630dcda036338d8660016040518563ffffffff1660e01b81526004016110e39493929190611766565b600060405180830381600087803b1580156110fd57600080fd5b505af1158015611111573d6000803e3d6000fd5b5050505080856111219190611a03565b94507fce667e3e79b1ef6d55cd59c67b60bbeb13e1549fad77f6f8b094341c2013505a338d86868151811061116657634e487b7160e01b600052603260045260246000fd5b602002602001015160600151846040516111839493929190611766565b60405180910390a150611316565b61119d6103e882611a69565b6111a96103e889611a69565b14806111c957506111bb600a82611a1b565b6111c76103e889611a69565b145b806111e857506111db6103e882611a69565b6111e6600a89611a1b565b145b8061120657506111f9600a82611a1b565b611204600a89611a1b565b145b156112ac57600083838151811061122d57634e487b7160e01b600052603260045260246000fd5b602002602001015160600151866112449190611a2f565b604051909150339082156108fc029083906000818181858888f19350505050158015611274573d6000803e3d6000fd5b506001546040516306e6d01b60e11b81526001600160a01b0390911690630dcda036906110e39033908f908890600290600401611766565b6001546040516306e6d01b60e11b81526001600160a01b0390911690630dcda036906112e39033908e908790600090600401611766565b600060405180830381600087803b1580156112fd57600080fd5b505af1158015611311573d6000803e3d6000fd5b505050505b505b8061132281611a4e565b915050610f4a565b509098975050505050505050565b61134061149c565b6001600160a01b0316611351610c07565b6001600160a01b0316146113775760405162461bcd60e51b815260040161040890611969565b600154604051631b836e6560e31b81526001600160a01b039091169063dc1b7328906113a790849060040161199e565b600060405180830381600087803b1580156113c157600080fd5b505af11580156113d5573d6000803e3d6000fd5b5050505050565b6113e461149c565b6001600160a01b03166113f5610c07565b6001600160a01b03161461141b5760405162461bcd60e51b815260040161040890611969565b6001600160a01b0381166114415760405162461bcd60e51b8152600401610408906118be565b600080546040516001600160a01b03808516939216917f8be0079c531659141344cd1fd0a4f28419497f9722a3daafe3b4186f6b6457e091a3600080546001600160a01b0319166001600160a01b0392909216919091179055565b3390565b805161097481611abf565b805161097481611ad7565b6000602082840312156114c7578081fd5b81356114d281611abf565b9392505050565b600060208083850312156114eb578182fd5b825167ffffffffffffffff80821115611502578384fd5b818501915085601f830112611515578384fd5b8151611528611523826119df565b6119b5565b8181528481019084860160e0808502870188018b1015611546578889fd5b8896505b848710156115e45780828c031215611560578889fd5b60408051828101818110898211171561157b5761157b611aa9565b8252611586846114a0565b8152838a01518a8201528184015191810191909152606080840151908201526080808401519082015260a0906115bd8285016114ab565b9181019190915260c08381015190820152845260019690960195928701929081019061154a565b50909998505050505050505050565b60006020808385031215611605578182fd5b825167ffffffffffffffff81111561161b578283fd5b8301601f8101851361162b578283fd5b8051611639611523826119df565b8181528381019083850185840285018601891015611655578687fd5b8694505b83851015611677578051835260019490940193918501918501611659565b50979650505050505050565b600060208284031215611694578081fd5b81356114d281611ad7565b6000602082840312156116b0578081fd5b5035919050565b6000602082840312156116c8578081fd5b5051919050565b600080604083850312156116e1578081fd5b50508035926020909101359150565b928352602083019190915260601b6bffffffffffffffffffffffff1916604082015260540190565b6001600160a01b0391909116815260200190565b6001600160a01b03929092168252602082015260400190565b6001600160a01b039390931683526020830191909152604082015260600190565b6001600160a01b0394909416845260208401929092526040830152606082015260800190565b6001600160a01b03949094168452602084019290925260408301521515606082015260800190565b6001600160a01b03959095168552602085019390935260408401919091526060830152608082015260a00190565b602080825282518282018190526000919060409081850190868401855b8281101561186257815180516001600160a01b0316855286810151878601528581015186860152606080820151908601526080808201519086015260a08082015115159086015260c0908101519085015260e090930192908501906001016117ff565b5091979650505050505050565b6020808252825182820181905260009190848201906040850190845b818110156118a75783518352928401929184019160010161188b565b50909695505050505050565b901515815260200190565b60208082526026908201527f4f776e61626c653a206e6577206f776e657220697320746865207a65726f206160408201526564647265737360d01b606082015260800190565b6020808252601490820152731d985b1d59481a5cc81b9bdd0818dbdc9c9958dd60621b604082015260600190565b60208082526017908201527f74686520636f6e74726163742069732070617573656421000000000000000000604082015260600190565b6020808252818101527f4f776e61626c653a2063616c6c6572206973206e6f7420746865206f776e6572604082015260600190565b90815260200190565b918252602082015260400190565b60405181810167ffffffffffffffff811182821017156119d7576119d7611aa9565b604052919050565b600067ffffffffffffffff8211156119f9576119f9611aa9565b5060209081020190565b60008219821115611a1657611a16611a7d565b500190565b600082611a2a57611a2a611a93565b500490565b6000816000190483118215151615611a4957611a49611a7d565b500290565b6000600019821415611a6257611a62611a7d565b5060010190565b600082611a7857611a78611a93565b500690565b634e487b7160e01b600052601160045260246000fd5b634e487b7160e01b600052601260045260246000fd5b634e487b7160e01b600052604160045260246000fd5b6001600160a01b0381168114611ad457600080fd5b50565b8015158114611ad457600080fdfea26469706673582212204b023dea4fff95aed0cc38f3812154cb9403a405b255c658ce3706306a0d5e1a64736f6c63430008000033",
  "immutableReferences": {},
  "source": "// SPDX-License-Identifier: MIT\r\npragma solidity ^0.8.0;\r\nimport '@openzeppelin/contracts/access/Ownable.sol';\r\nimport './Data.sol';\r\n\r\ncontract Lottery is Ownable{\r\n    Data data;//\r\n    bool public pauseStatus;//\r\n\r\n    //      owner    number     quantity    id()\r\n    event GetPlay(address owner,uint256 number,uint256 qDuantity,bytes32 id);\r\n    //     number\r\n    event GetDraw(uint256 number);\r\n    //     owner    number     quantity:      prize\r\n    event GetExchange(address owner,uint256 number, uint quantity,uint256 prize);\r\n\r\n    constructor (address dataContractAddress) {    //src\\migrations\\3_lottery.js\r\n        pauseStatus= false; //\r\n        data = Data(dataContractAddress);\r\n        //data.transferOwnership(address(this));//\r\n    }\r\n\r\n    //data\r\n    function transferOwnership() public onlyOwner {\r\n        data.transferOwnership(msg.sender);\r\n    }\r\n\r\n    //\r\n    function getbalance() public view returns(uint256) {\r\n        return address(this).balance;\r\n    }\r\n\r\n    //\r\n    modifier needPause() {\r\n        require(!pauseStatus,'the contract is paused!');\r\n        _;\r\n    }\r\n\r\n    //\r\n    function setPaused(bool _pauseStatus) public onlyOwner {\r\n        pauseStatus = _pauseStatus;\r\n    }\r\n\r\n    //\r\n    function setUnitPrice(uint256 unitPrice) public onlyOwner{\r\n        data.setUnitPrice(unitPrice);\r\n    }\r\n\r\n    //\r\n    function getUnitPrice() public view returns(uint256) {\r\n        return data.getUnitPrice();\r\n    }\r\n\r\n    //        bigPrize       smallPrize\r\n    function setPrize(uint256 bigPrize,uint256 smallPrize) public onlyOwner {\r\n        data.setPrize(bigPrize, smallPrize);\r\n    }\r\n\r\n    //\r\n    function getBigPrize() public view returns(uint256){\r\n        return data.getBigPrize();\r\n    }\r\n\r\n    //\r\n    function getSmallPrize() public view returns(uint256){\r\n        return data.getSmallPrize();\r\n    }\r\n    \r\n    //     period\r\n    function getSelectedTickets(uint period) view public returns(Data.lotteryInfo[] memory){\r\n        return data.getSelectedTickets(msg.sender,period);\r\n    }\r\n\r\n    //\r\n    function getOpenNumberList() view public returns(uint256[] memory){\r\n        uint256[] memory openNumberList = data.getOpenNumberList();\r\n        return openNumberList;\r\n    }\r\n\r\n    //\r\n    function playRandom(uint256 quantity) public payable needPause {\r\n        uint unitPrice = data.getUnitPrice();\r\n        require(msg.value == unitPrice * quantity,'value is not correct');\r\n        for (uint256 index = 0; index < quantity; index++) { \r\n            bytes memory b1 = abi.encodePacked(block.timestamp,block.difficulty,msg.sender); //\r\n            bytes32 b2 = keccak256(b1); //Keccak256(SHA3)\r\n            uint256 number = uint256(b2) % 10000; //4\r\n            data.pushTickets(msg.sender,number,b2); //1\r\n            emit GetPlay(msg.sender,number,1,b2); //\r\n        }\r\n    }\r\n\r\n    //      number     quantity\r\n    function play(uint256 number,uint256 quantity) public payable returns(uint256){\r\n        uint unitPrice = data.getUnitPrice();\r\n        require(msg.value == unitPrice * quantity,'value is not correct');\r\n        data.pushTickets(msg.sender,number,quantity,0); //quantitynumber\r\n        emit GetPlay(msg.sender,number,quantity,0); //\r\n        return number; //\r\n    }\r\n    \r\n    //\r\n    function draw() public onlyOwner needPause {  //\r\n        bytes memory b1 = abi.encodePacked(block.timestamp,block.difficulty,msg.sender); //\r\n        bytes32 b2 = keccak256(b1); //Keccak256(SHA3)\r\n        uint256 number = uint256(b2) % 10000; //4\r\n        data.pushOpenNumberList(number); //\r\n        emit GetDraw(number); //\r\n    }\r\n\r\n    //    number     period\r\n    function exchange(uint256 number,uint256 period) public needPause returns(uint256){  //\r\n        uint256[] memory tempList = data.getOpenNumberList(); //\r\n        uint256 openNumber = tempList[period]; //period\r\n        uint256 bigPrize = data.getBigPrize(); //\r\n        uint256 smallPrize = data.getSmallPrize(); //\r\n        uint256 totalPrize = 0;\r\n        Data.lotteryInfo[] memory tempInfos = data.getSelectedTickets(msg.sender,period); //period\r\n        for (uint256 index = 0; index < tempInfos.length; index++) {  //\r\n            uint256 ownerNumber = tempInfos[index].number;\r\n            if(ownerNumber == number){    //\r\n                if(tempInfos[index].exchangeStatus) //\r\n                        continue;\r\n                data.setExchangeStatus(msg.sender,period,index,true); //\r\n                if(number == openNumber){   //\r\n                    uint256 prize = bigPrize * tempInfos[index].quantity;\r\n                    payable(msg.sender).transfer(prize); //\r\n                    data.setWinStatus(msg.sender,period,index,1); //\r\n                    totalPrize += prize;\r\n                    emit GetExchange(msg.sender,number,tempInfos[index].quantity,prize); //\r\n                } else if((openNumber % 1000 == ownerNumber % 1000)  //33\r\n                          || (openNumber % 1000 == ownerNumber / 10)       //33\r\n                          || (openNumber / 10 == ownerNumber % 1000)       //33\r\n                          || (openNumber / 10 == ownerNumber / 10)){          //33\r\n                    uint256 prize = smallPrize * tempInfos[index].quantity;\r\n                    payable(msg.sender).transfer(prize); //\r\n                    data.setWinStatus(msg.sender,period,index,2); //\r\n                    totalPrize += prize;\r\n                    emit GetExchange(msg.sender,number,tempInfos[index].quantity,prize); //\r\n                }\r\n                else\r\n                {\r\n                    data.setWinStatus(msg.sender,period,index,0); //\r\n                }\r\n            }\r\n        }\r\n\r\n        return totalPrize;\r\n    }\r\n\r\n    //\r\n    function setTicketTemp(uint256 period,uint256 number) public onlyOwner{\r\n        data.pushTickets(msg.sender, period, number, 1, 0);\r\n    }\r\n\r\n    receive() external payable {}\r\n\r\n}",
  "sourcePath": "F:/testproject/caipiao/src/contracts/Lottery.sol",
  "compiler": {
    "name": "solc",
    "version": "0.8.0+commit.c7dfd78e.Emscripten.clang"
  },
  "schemaVersion": "3.4.1",
  "updatedAt": "2021-06-29T10:10:50.804Z",
  "networkType": "ethereum",
  "devdoc": {
    "kind": "dev",
    "methods": {
      "owner()": {
        "details": "Returns the address of the current owner."
      },
      "renounceOwnership()": {
        "details": "Leaves the contract without owner. It will not be possible to call `onlyOwner` functions anymore. Can only be called by the current owner. NOTE: Renouncing ownership will leave the contract without an owner, thereby removing any functionality that is only available to the owner."
      },
      "transferOwnership(address)": {
        "details": "Transfers ownership of the contract to a new account (`newOwner`). Can only be called by the current owner."
      }
    },
    "version": 1
  },
  "userdoc": {
    "kind": "user",
    "methods": {},
    "version": 1
  }
}