{
  "contractName": "Lottery",
  "abi": [
    {
      "inputs": [
        {
          "internalType": "address",
          "name": "dataContractAddress",
          "type": "address"
        }
      ],
      "stateMutability": "nonpayable",
      "type": "constructor"
    },
    {
      "anonymous": false,
      "inputs": [
        {
          "indexed": false,
          "internalType": "uint256",
          "name": "number",
          "type": "uint256"
        }
      ],
      "name": "GetDraw",
      "type": "event"
    },
    {
      "anonymous": false,
      "inputs": [
        {
          "indexed": false,
          "internalType": "address",
          "name": "owner",
          "type": "address"
        },
        {
          "indexed": false,
          "internalType": "uint256",
          "name": "number",
          "type": "uint256"
        },
        {
          "indexed": false,
          "internalType": "uint256",
          "name": "quantity",
          "type": "uint256"
        },
        {
          "indexed": false,
          "internalType": "uint256",
          "name": "prize",
          "type": "uint256"
        }
      ],
      "name": "GetExchange",
      "type": "event"
    },
    {
      "anonymous": false,
      "inputs": [
        {
          "indexed": false,
          "internalType": "address",
          "name": "owner",
          "type": "address"
        },
        {
          "indexed": false,
          "internalType": "uint256",
          "name": "number",
          "type": "uint256"
        },
        {
          "indexed": false,
          "internalType": "uint256",
          "name": "qDuantity",
          "type": "uint256"
        },
        {
          "indexed": false,
          "internalType": "bytes32",
          "name": "id",
          "type": "bytes32"
        }
      ],
      "name": "GetPlay",
      "type": "event"
    },
    {
      "anonymous": false,
      "inputs": [
        {
          "indexed": true,
          "internalType": "address",
          "name": "previousOwner",
          "type": "address"
        },
        {
          "indexed": true,
          "internalType": "address",
          "name": "newOwner",
          "type": "address"
        }
      ],
      "name": "OwnershipTransferred",
      "type": "event"
    },
    {
      "inputs": [],
      "name": "owner",
      "outputs": [
        {
          "internalType": "address",
          "name": "",
          "type": "address"
        }
      ],
      "stateMutability": "view",
      "type": "function",
      "constant": true
    },
    {
      "inputs": [],
      "name": "pauseStatus",
      "outputs": [
        {
          "internalType": "bool",
          "name": "",
          "type": "bool"
        }
      ],
      "stateMutability": "view",
      "type": "function",
      "constant": true
    },
    {
      "inputs": [],
      "name": "renounceOwnership",
      "outputs": [],
      "stateMutability": "nonpayable",
      "type": "function"
    },
    {
      "stateMutability": "payable",
      "type": "receive",
      "payable": true
    },
    {
      "inputs": [],
      "name": "transferOwnership",
      "outputs": [],
      "stateMutability": "nonpayable",
      "type": "function"
    },
    {
      "inputs": [
        {
          "internalType": "address",
          "name": "newOwner",
          "type": "address"
        }
      ],
      "name": "transferOwnership",
      "outputs": [],
      "stateMutability": "nonpayable",
      "type": "function"
    },
    {
      "inputs": [],
      "name": "getbalance",
      "outputs": [
        {
          "internalType": "uint256",
          "name": "",
          "type": "uint256"
        }
      ],
      "stateMutability": "view",
      "type": "function",
      "constant": true
    },
    {
      "inputs": [
        {
          "internalType": "bool",
          "name": "_pauseStatus",
          "type": "bool"
        }
      ],
      "name": "setPaused",
      "outputs": [],
      "stateMutability": "nonpayable",
      "type": "function"
    },
    {
      "inputs": [
        {
          "internalType": "uint256",
          "name": "unitPrice",
          "type": "uint256"
        }
      ],
      "name": "setUnitPrice",
      "outputs": [],
      "stateMutability": "nonpayable",
      "type": "function"
    },
    {
      "inputs": [],
      "name": "getUnitPrice",
      "outputs": [
        {
          "internalType": "uint256",
          "name": "",
          "type": "uint256"
        }
      ],
      "stateMutability": "view",
      "type": "function",
      "constant": true
    },
    {
      "inputs": [
        {
          "internalType": "uint256",
          "name": "bigPrize",
          "type": "uint256"
        },
        {
          "internalType": "uint256",
          "name": "smallPrize",
          "type": "uint256"
        }
      ],
      "name": "setPrize",
      "outputs": [],
      "stateMutability": "nonpayable",
      "type": "function"
    },
    {
      "inputs": [],
      "name": "getBigPrize",
      "outputs": [
        {
          "internalType": "uint256",
          "name": "",
          "type": "uint256"
        }
      ],
      "stateMutability": "view",
      "type": "function",
      "constant": true
    },
    {
      "inputs": [],
      "name": "getSmallPrize",
      "outputs": [
        {
          "internalType": "uint256",
          "name": "",
          "type": "uint256"
        }
      ],
      "stateMutability": "view",
      "type": "function",
      "constant": true
    },
    {
      "inputs": [
        {
          "internalType": "uint256",
          "name": "period",
          "type": "uint256"
        }
      ],
      "name": "getSelectedTickets",
      "outputs": [
        {
          "components": [
            {
              "internalType": "address",
              "name": "owner",
              "type": "address"
            },
            {
              "internalType": "uint256",
              "name": "period",
              "type": "uint256"
            },
            {
              "internalType": "uint256",
              "name": "number",
              "type": "uint256"
            },
            {
              "internalType": "uint256",
              "name": "quantity",
              "type": "uint256"
            },
            {
              "internalType": "bytes32",
              "name": "id",
              "type": "bytes32"
            },
            {
              "internalType": "bool",
              "name": "exchangeStatus",
              "type": "bool"
            },
            {
              "internalType": "uint256",
              "name": "winStatus",
              "type": "uint256"
            }
          ],
          "internalType": "struct Data.lotteryInfo[]",
          "name": "",
          "type": "tuple[]"
        }
      ],
      "stateMutability": "view",
      "type": "function",
      "constant": true
    },
    {
      "inputs": [],
      "name": "getOpenNumberList",
      "outputs": [
        {
          "internalType": "uint256[]",
          "name": "",
          "type": "uint256[]"
        }
      ],
      "stateMutability": "view",
      "type": "function",
      "constant": true
    },
    {
      "inputs": [
        {
          "internalType": "uint256",
          "name": "quantity",
          "type": "uint256"
        }
      ],
      "name": "playRandom",
      "outputs": [],
      "stateMutability": "payable",
      "type": "function",
      "payable": true
    },
    {
      "inputs": [
        {
          "internalType": "uint256",
          "name": "number",
          "type": "uint256"
        },
        {
          "internalType": "uint256",
          "name": "quantity",
          "type": "uint256"
        }
      ],
      "name": "play",
      "outputs": [
        {
          "internalType": "uint256",
          "name": "",
          "type": "uint256"
        }
      ],
      "stateMutability": "payable",
      "type": "function",
      "payable": true
    },
    {
      "inputs": [],
      "name": "draw",
      "outputs": [],
      "stateMutability": "nonpayable",
      "type": "function"
    },
    {
      "inputs": [
        {
          "internalType": "uint256",
          "name": "number",
          "type": "uint256"
        },
        {
          "internalType": "uint256",
          "name": "period",
          "type": "uint256"
        }
      ],
      "name": "exchange",
      "outputs": [
        {
          "internalType": "uint256",
          "name": "",
          "type": "uint256"
        }
      ],
      "stateMutability": "nonpayable",
      "type": "function"
    },
    {
      "inputs": [
        {
          "internalType": "uint256",
          "name": "period",
          "type": "uint256"
        },
        {
          "internalType": "uint256",
          "name": "number",
          "type": "uint256"
        }
      ],
      "name": "setTicketTemp",
      "outputs": [],
      "stateMutability": "nonpayable",
      "type": "function"
    }
  ],
  "bytecode": "0x60806040523480156200001157600080fd5b50604051620020cb380380620020cb8339810160408190526200003491620000b4565b600062000040620000b0565b600080546001600160a01b0319166001600160a01b0383169081178255604051929350917f8be0079c531659141344cd1fd0a4f28419497f9722a3daafe3b4186f6b6457e0908290a350600180546001600160a81b0319166001600160a01b0392909216919091179055620000e4565b3390565b600060208284031215620000c6578081fd5b81516001600160a01b0381168114620000dd578182fd5b9392505050565b611fd780620000f46000396000f3fe6080604052600436106101185760003560e01c80635221cade116100a057806396e5b68c1161006457806396e5b68c146102b3578063b47b24a7146102d3578063d4b7eac3146102e8578063dc1b732814610308578063f2fde38b146103285761011f565b80635221cade14610227578063715018a6146102545780637bc49a9514610269578063880ad0af1461027c5780638da5cb5b146102915761011f565b806316c38b3c116100e757806316c38b3c1461019b5780632038d36a146101bb57806321cccdfb146101dd578063466916ca146101f05780634d9b3d5d146102125761011f565b8063012a33aa1461012457806309e4bc371461014f5780630eecae2114610171578063161da567146101865761011f565b3661011f57005b600080fd5b34801561013057600080fd5b50610139610348565b6040516101469190611e5a565b60405180910390f35b34801561015b57600080fd5b5061016f61016a366004611b75565b6103c9565b005b34801561017d57600080fd5b5061016f61047f565b34801561019257600080fd5b50610139610745565b3480156101a757600080fd5b5061016f6101b6366004611b29565b61078a565b3480156101c757600080fd5b506101d06107e7565b6040516101469190611d2b565b61016f6101eb366004611b45565b61087b565b3480156101fc57600080fd5b50610205610c30565b6040516101469190611d6f565b34801561021e57600080fd5b50610139610c40565b34801561023357600080fd5b50610247610242366004611b45565b610c44565b6040516101469190611c9e565b34801561026057600080fd5b5061016f610cd3565b610139610277366004611b75565b610d5c565b34801561028857600080fd5b5061016f611010565b34801561029d57600080fd5b506102a66110ad565b6040516101469190611bd4565b3480156102bf57600080fd5b5061016f6102ce366004611b75565b6110bc565b3480156102df57600080fd5b5061013961112d565b3480156102f457600080fd5b50610139610303366004611b75565b611172565b34801561031457600080fd5b5061016f610323366004611b45565b6117de565b34801561033457600080fd5b5061016f61034336600461195c565b611882565b60015460408051629519d560e11b815290516000926001600160a01b03169163012a33aa916004808301926020929190829003018186803b15801561038c57600080fd5b505afa1580156103a0573d6000803e3d6000fd5b505050506040513d601f19601f820116820180604052508101906103c49190611b5d565b905090565b6103d1611942565b6001600160a01b03166103e26110ad565b6001600160a01b0316146104115760405162461bcd60e51b815260040161040890611e25565b60405180910390fd5b6001805460405163723dac6560e11b81526001600160a01b039091169163e47b58ca9161044991339187918791600090600401611c70565b600060405180830381600087803b15801561046357600080fd5b505af1158015610477573d6000803e3d6000fd5b505050505050565b610487611942565b6001600160a01b03166104986110ad565b6001600160a01b0316146104be5760405162461bcd60e51b815260040161040890611e25565b600154600160a01b900460ff16156104e85760405162461bcd60e51b815260040161040890611dee565b60015460408051631ed2419560e01b815290516000926001600160a01b031691631ed24195916004808301926020929190829003018186803b15801561052d57600080fd5b505afa158015610541573d6000803e3d6000fd5b505050506040513d601f19601f820116820180604052508101906105659190611b5d565b60015460405163099c794160e41b815291925060009142916001600160a01b0316906399c794109061059b908690600401611e5a565b60206040518083038186803b1580156105b357600080fd5b505afa1580156105c7573d6000803e3d6000fd5b505050506040513d601f19601f820116820180604052508101906105eb9190611b5d565b60015460405163d75c3ac960e01b81526001600160a01b039091169063d75c3ac99061061b908790600401611e5a565b60206040518083038186803b15801561063357600080fd5b505afa158015610647573d6000803e3d6000fd5b505050506040513d601f19601f8201168201806040525081019061066b9190611b5d565b60405160200161067d93929190611bbe565b60408051601f198184030181529190528051602082012090915060006106a561271083611f25565b6001546040516304539ed560e11b81529192506001600160a01b0316906308a73daa906106d6908490600401611e5a565b600060405180830381600087803b1580156106f057600080fd5b505af1158015610704573d6000803e3d6000fd5b505050507fd2f59da2a0350ef4fefbb544f2c2b502644c53d25f788cc3c47afaeb13b85a74816040516107379190611e5a565b60405180910390a150505050565b6001546040805163161da56760e01b815290516000926001600160a01b03169163161da567916004808301926020929190829003018186803b15801561038c57600080fd5b610792611942565b6001600160a01b03166107a36110ad565b6001600160a01b0316146107c95760405162461bcd60e51b815260040161040890611e25565b60018054911515600160a01b0260ff60a01b19909216919091179055565b60606000600160009054906101000a90046001600160a01b03166001600160a01b0316632038d36a6040518163ffffffff1660e01b815260040160006040518083038186803b15801561083957600080fd5b505afa15801561084d573d6000803e3d6000fd5b505050506040513d6000823e601f3d908101601f191682016040526108759190810190611a99565b91505090565b600154600160a01b900460ff16156108a55760405162461bcd60e51b815260040161040890611dee565b60015460408051629519d560e11b815290516000926001600160a01b03169163012a33aa916004808301926020929190829003018186803b1580156108e957600080fd5b505afa1580156108fd573d6000803e3d6000fd5b505050506040513d601f19601f820116820180604052508101906109219190611b5d565b905061092d8282611eeb565b341461094b5760405162461bcd60e51b815260040161040890611dc0565b60015460408051636c62590560e11b815290516000926001600160a01b03169163d8c4b20a916004808301926020929190829003018186803b15801561099057600080fd5b505afa1580156109a4573d6000803e3d6000fd5b505050506040513d601f19601f820116820180604052508101906109c89190611b5d565b905060005b83811015610c2a576000426109e28385611ebf565b336040516020016109f593929190611b96565b60408051601f19818403018152919052805160208201209091506000610a1d61271083611f25565b600154604051630cde2cbb60e31b81529192506001600160a01b0316906366f165d890610a5290339085908790600401611c01565b600060405180830381600087803b158015610a6c57600080fd5b505af1158015610a80573d6000803e3d6000fd5b505050506000600160009054906101000a90046001600160a01b03166001600160a01b0316631ed241956040518163ffffffff1660e01b815260040160206040518083038186803b158015610ad457600080fd5b505afa158015610ae8573d6000803e3d6000fd5b505050506040513d601f19601f82011682018060405250810190610b0c9190611b5d565b60018054604051635c958cdd60e11b81529293506001600160a01b03169163b92b19ba91610b3f91859190600401611e63565b600060405180830381600087803b158015610b5957600080fd5b505af1158015610b6d573d6000803e3d6000fd5b5050600154604051630d760a3160e31b81526001600160a01b039091169250636bb051889150610ba39084908690600401611e63565b600060405180830381600087803b158015610bbd57600080fd5b505af1158015610bd1573d6000803e3d6000fd5b505050507f7b46f9988ac820519d2b7463528e428c1bb962ce12a8f5f3eaa1faa7a1930f283383600186604051610c0b9493929190611c22565b60405180910390a1505050508080610c2290611f0a565b9150506109cd565b50505050565b600154600160a01b900460ff1681565b4790565b60015460405163023766d960e41b81526060916001600160a01b0316906323766d9090610c779033908690600401611be8565b60006040518083038186803b158015610c8f57600080fd5b505afa158015610ca3573d6000803e3d6000fd5b505050506040513d6000823e601f3d908101601f19168201604052610ccb919081019061197f565b90505b919050565b610cdb611942565b6001600160a01b0316610cec6110ad565b6001600160a01b031614610d125760405162461bcd60e51b815260040161040890611e25565b600080546040516001600160a01b03909116907f8be0079c531659141344cd1fd0a4f28419497f9722a3daafe3b4186f6b6457e0908390a3600080546001600160a01b0319169055565b600080600160009054906101000a90046001600160a01b03166001600160a01b031663012a33aa6040518163ffffffff1660e01b815260040160206040518083038186803b158015610dad57600080fd5b505afa158015610dc1573d6000803e3d6000fd5b505050506040513d601f19601f82011682018060405250810190610de59190611b5d565b9050610df18382611eeb565b3414610e0f5760405162461bcd60e51b815260040161040890611dc0565b6001546040516336f81bf760e11b81526001600160a01b0390911690636df037ee90610e4690339088908890600090600401611c22565b600060405180830381600087803b158015610e6057600080fd5b505af1158015610e74573d6000803e3d6000fd5b505050506000600160009054906101000a90046001600160a01b03166001600160a01b0316631ed241956040518163ffffffff1660e01b815260040160206040518083038186803b158015610ec857600080fd5b505afa158015610edc573d6000803e3d6000fd5b505050506040513d601f19601f82011682018060405250810190610f009190611b5d565b600154604051635c958cdd60e11b81529192506001600160a01b03169063b92b19ba90610f339084908890600401611e63565b600060405180830381600087803b158015610f4d57600080fd5b505af1158015610f61573d6000803e3d6000fd5b5050600154604051630d760a3160e31b81526001600160a01b039091169250636bb051889150610f979084908990600401611e63565b600060405180830381600087803b158015610fb157600080fd5b505af1158015610fc5573d6000803e3d6000fd5b505050507f7b46f9988ac820519d2b7463528e428c1bb962ce12a8f5f3eaa1faa7a1930f283386866000604051610fff9493929190611c22565b60405180910390a150929392505050565b611018611942565b6001600160a01b03166110296110ad565b6001600160a01b03161461104f5760405162461bcd60e51b815260040161040890611e25565b60015460405163f2fde38b60e01b81526001600160a01b039091169063f2fde38b9061107f903390600401611bd4565b600060405180830381600087803b15801561109957600080fd5b505af1158015610c2a573d6000803e3d6000fd5b6000546001600160a01b031690565b6110c4611942565b6001600160a01b03166110d56110ad565b6001600160a01b0316146110fb5760405162461bcd60e51b815260040161040890611e25565b6001546040516325b96da360e21b81526001600160a01b03909116906396e5b68c906104499085908590600401611e63565b6001546040805163b47b24a760e01b815290516000926001600160a01b03169163b47b24a7916004808301926020929190829003018186803b15801561038c57600080fd5b600154600090600160a01b900460ff161561119f5760405162461bcd60e51b815260040161040890611dee565b6001546040805163101c69b560e11b815290516000926001600160a01b031691632038d36a9160048083019286929190829003018186803b1580156111e357600080fd5b505afa1580156111f7573d6000803e3d6000fd5b505050506040513d6000823e601f3d908101601f1916820160405261121f9190810190611a99565b9050600081848151811061124357634e487b7160e01b600052603260045260246000fd5b602002602001015190506000600160009054906101000a90046001600160a01b03166001600160a01b031663161da5676040518163ffffffff1660e01b815260040160206040518083038186803b15801561129d57600080fd5b505afa1580156112b1573d6000803e3d6000fd5b505050506040513d601f19601f820116820180604052508101906112d59190611b5d565b90506000600160009054906101000a90046001600160a01b03166001600160a01b031663b47b24a76040518163ffffffff1660e01b815260040160206040518083038186803b15801561132757600080fd5b505afa15801561133b573d6000803e3d6000fd5b505050506040513d601f19601f8201168201806040525081019061135f9190611b5d565b60015460405163023766d960e41b815291925060009182916001600160a01b0316906323766d90906113979033908c90600401611be8565b60006040518083038186803b1580156113af57600080fd5b505afa1580156113c3573d6000803e3d6000fd5b505050506040513d6000823e601f3d908101601f191682016040526113eb919081019061197f565b905060005b81518110156117d057600082828151811061141b57634e487b7160e01b600052603260045260246000fd5b60200260200101516040015190508a8114156117bc5782828151811061145157634e487b7160e01b600052603260045260246000fd5b602002602001015160a001511561146857506117be565b6001805460405163f10a4d7360e01b81526001600160a01b039091169163f10a4d739161149d9133918f918891600401611c48565b600060405180830381600087803b1580156114b757600080fd5b505af11580156114cb573d6000803e3d6000fd5b50505050868b14156116375760008383815181106114f957634e487b7160e01b600052603260045260246000fd5b602002602001015160600151876115109190611eeb565b604051909150339082156108fc029083906000818181858888f19350505050158015611540573d6000803e3d6000fd5b50600160009054906101000a90046001600160a01b03166001600160a01b0316630dcda036338d8660016040518563ffffffff1660e01b81526004016115899493929190611c22565b600060405180830381600087803b1580156115a357600080fd5b505af11580156115b7573d6000803e3d6000fd5b5050505080856115c79190611ebf565b94507fce667e3e79b1ef6d55cd59c67b60bbeb13e1549fad77f6f8b094341c2013505a338d86868151811061160c57634e487b7160e01b600052603260045260246000fd5b602002602001015160600151846040516116299493929190611c22565b60405180910390a1506117bc565b6116436103e882611f25565b61164f6103e889611f25565b148061166f5750611661600a82611ed7565b61166d6103e889611f25565b145b8061168e57506116816103e882611f25565b61168c600a89611ed7565b145b806116ac575061169f600a82611ed7565b6116aa600a89611ed7565b145b156117525760008383815181106116d357634e487b7160e01b600052603260045260246000fd5b602002602001015160600151866116ea9190611eeb565b604051909150339082156108fc029083906000818181858888f1935050505015801561171a573d6000803e3d6000fd5b506001546040516306e6d01b60e11b81526001600160a01b0390911690630dcda036906115899033908f908890600290600401611c22565b6001546040516306e6d01b60e11b81526001600160a01b0390911690630dcda036906117899033908e908790600090600401611c22565b600060405180830381600087803b1580156117a357600080fd5b505af11580156117b7573d6000803e3d6000fd5b505050505b505b806117c881611f0a565b9150506113f0565b509098975050505050505050565b6117e6611942565b6001600160a01b03166117f76110ad565b6001600160a01b03161461181d5760405162461bcd60e51b815260040161040890611e25565b600154604051631b836e6560e31b81526001600160a01b039091169063dc1b73289061184d908490600401611e5a565b600060405180830381600087803b15801561186757600080fd5b505af115801561187b573d6000803e3d6000fd5b5050505050565b61188a611942565b6001600160a01b031661189b6110ad565b6001600160a01b0316146118c15760405162461bcd60e51b815260040161040890611e25565b6001600160a01b0381166118e75760405162461bcd60e51b815260040161040890611d7a565b600080546040516001600160a01b03808516939216917f8be0079c531659141344cd1fd0a4f28419497f9722a3daafe3b4186f6b6457e091a3600080546001600160a01b0319166001600160a01b0392909216919091179055565b3390565b8051610cce81611f7b565b8051610cce81611f93565b60006020828403121561196d578081fd5b813561197881611f7b565b9392505050565b60006020808385031215611991578182fd5b825167ffffffffffffffff808211156119a8578384fd5b818501915085601f8301126119bb578384fd5b81516119ce6119c982611e9b565b611e71565b8181528481019084860160e0808502870188018b10156119ec578889fd5b8896505b84871015611a8a5780828c031215611a06578889fd5b604080518281018181108982111715611a2157611a21611f65565b8252611a2c84611946565b8152838a01518a8201528184015191810191909152606080840151908201526080808401519082015260a090611a63828501611951565b9181019190915260c0838101519082015284526001969096019592870192908101906119f0565b50909998505050505050505050565b60006020808385031215611aab578182fd5b825167ffffffffffffffff811115611ac1578283fd5b8301601f81018513611ad1578283fd5b8051611adf6119c982611e9b565b8181528381019083850185840285018601891015611afb578687fd5b8694505b83851015611b1d578051835260019490940193918501918501611aff565b50979650505050505050565b600060208284031215611b3a578081fd5b813561197881611f93565b600060208284031215611b56578081fd5b5035919050565b600060208284031215611b6e578081fd5b5051919050565b60008060408385031215611b87578081fd5b50508035926020909101359150565b928352602083019190915260601b6bffffffffffffffffffffffff1916604082015260540190565b9283526020830191909152604082015260600190565b6001600160a01b0391909116815260200190565b6001600160a01b03929092168252602082015260400190565b6001600160a01b039390931683526020830191909152604082015260600190565b6001600160a01b0394909416845260208401929092526040830152606082015260800190565b6001600160a01b03949094168452602084019290925260408301521515606082015260800190565b6001600160a01b03959095168552602085019390935260408401919091526060830152608082015260a00190565b602080825282518282018190526000919060409081850190868401855b82811015611d1e57815180516001600160a01b0316855286810151878601528581015186860152606080820151908601526080808201519086015260a08082015115159086015260c0908101519085015260e09093019290850190600101611cbb565b5091979650505050505050565b6020808252825182820181905260009190848201906040850190845b81811015611d6357835183529284019291840191600101611d47565b50909695505050505050565b901515815260200190565b60208082526026908201527f4f776e61626c653a206e6577206f776e657220697320746865207a65726f206160408201526564647265737360d01b606082015260800190565b6020808252601490820152731d985b1d59481a5cc81b9bdd0818dbdc9c9958dd60621b604082015260600190565b60208082526017908201527f74686520636f6e74726163742069732070617573656421000000000000000000604082015260600190565b6020808252818101527f4f776e61626c653a2063616c6c6572206973206e6f7420746865206f776e6572604082015260600190565b90815260200190565b918252602082015260400190565b60405181810167ffffffffffffffff81118282101715611e9357611e93611f65565b604052919050565b600067ffffffffffffffff821115611eb557611eb5611f65565b5060209081020190565b60008219821115611ed257611ed2611f39565b500190565b600082611ee657611ee6611f4f565b500490565b6000816000190483118215151615611f0557611f05611f39565b500290565b6000600019821415611f1e57611f1e611f39565b5060010190565b600082611f3457611f34611f4f565b500690565b634e487b7160e01b600052601160045260246000fd5b634e487b7160e01b600052601260045260246000fd5b634e487b7160e01b600052604160045260246000fd5b6001600160a01b0381168114611f9057600080fd5b50565b8015158114611f9057600080fdfea26469706673582212208c0b16bbd575e5f73293962f031eea970d2dc4dd6925e6ca077e3b7dbf41cba364736f6c63430008000033",
  "immutableReferences": {},
  "source": "// SPDX-License-Identifier: MIT\r\npragma solidity ^0.8.0;\r\nimport '@openzeppelin/contracts/access/Ownable.sol';\r\nimport './Data.sol';\r\n\r\ncontract Lottery is Ownable{\r\n    Data data;//\r\n    bool public pauseStatus;//\r\n\r\n    //      owner    number     quantity    id()\r\n    event GetPlay(address owner,uint256 number,uint256 qDuantity,bytes32 id);\r\n    //     number\r\n    event GetDraw(uint256 number);\r\n    //     owner    number     quantity:      prize\r\n    event GetExchange(address owner,uint256 number, uint quantity,uint256 prize);\r\n\r\n    constructor (address dataContractAddress) {    //src\\migrations\\3_lottery.js\r\n        pauseStatus= false; //\r\n        data = Data(dataContractAddress);\r\n        //data.transferOwnership(address(this));//\r\n    }\r\n\r\n    //data\r\n    function transferOwnership() public onlyOwner {\r\n        data.transferOwnership(msg.sender);\r\n    }\r\n\r\n    //\r\n    function getbalance() public view returns(uint256) {\r\n        return address(this).balance;\r\n    }\r\n\r\n    //\r\n    modifier needPause() {\r\n        require(!pauseStatus,'the contract is paused!');\r\n        _;\r\n    }\r\n\r\n    //\r\n    function setPaused(bool _pauseStatus) public onlyOwner {\r\n        pauseStatus = _pauseStatus;\r\n    }\r\n\r\n    //\r\n    function setUnitPrice(uint256 unitPrice) public onlyOwner{\r\n        data.setUnitPrice(unitPrice);\r\n    }\r\n\r\n    //\r\n    function getUnitPrice() public view returns(uint256) {\r\n        return data.getUnitPrice();\r\n    }\r\n\r\n    //        bigPrize       smallPrize\r\n    function setPrize(uint256 bigPrize,uint256 smallPrize) public onlyOwner {\r\n        data.setPrize(bigPrize, smallPrize);\r\n    }\r\n\r\n    //\r\n    function getBigPrize() public view returns(uint256){\r\n        return data.getBigPrize();\r\n    }\r\n\r\n    //\r\n    function getSmallPrize() public view returns(uint256){\r\n        return data.getSmallPrize();\r\n    }\r\n    \r\n    //     period\r\n    function getSelectedTickets(uint period) view public returns(Data.lotteryInfo[] memory){\r\n        return data.getSelectedTickets(msg.sender,period);\r\n    }\r\n\r\n    //\r\n    function getOpenNumberList() view public returns(uint256[] memory){\r\n        uint256[] memory openNumberList = data.getOpenNumberList();\r\n        return openNumberList;\r\n    }\r\n\r\n    //\r\n    function playRandom(uint256 quantity) public payable needPause {\r\n        uint unitPrice = data.getUnitPrice();\r\n        require(msg.value == unitPrice * quantity,'value is not correct');\r\n        uint256 userNum=data.getOpenNumberListLength();\r\n        for (uint256 index = 0; index < quantity; index++) { \r\n            //bytes memory b1 = abi.encodePacked(block.timestamp,block.difficulty,msg.sender); //\r\n            bytes memory b1 = abi.encodePacked(block.timestamp,userNum+index,msg.sender); //\r\n            bytes32 b2 = keccak256(b1); //Keccak256(SHA3)\r\n            uint256 number = uint256(b2) % 10000; //4\r\n            data.pushTickets(msg.sender,number,b2); //1\r\n            uint256 period = data.getPeriod();\r\n            data.addPlayCount(period,1);\r\n            data.setLastPlayNumber(period,number);\r\n            emit GetPlay(msg.sender,number,1,b2); //\r\n        }\r\n    }\r\n\r\n    //      number     quantity\r\n    function play(uint256 number,uint256 quantity) public payable returns(uint256){\r\n        uint unitPrice = data.getUnitPrice();\r\n        require(msg.value == unitPrice * quantity,'value is not correct');\r\n        data.pushTickets(msg.sender,number,quantity,0); //quantitynumber\r\n        uint256 period = data.getPeriod();\r\n        data.addPlayCount(period,quantity);\r\n        data.setLastPlayNumber(period,number);\r\n        emit GetPlay(msg.sender,number,quantity,0); //\r\n        return number; //\r\n    }\r\n    \r\n    //\r\n    function draw() public onlyOwner needPause {  //\r\n        uint256 period = data.getPeriod();\r\n        //\r\n        bytes memory b1 = abi.encodePacked(block.timestamp,data.getPlayCount(period),data.getLastPlayNumber(period)); //\r\n        bytes32 b2 = keccak256(b1); //Keccak256(SHA3)f\r\n        uint256 number = uint256(b2) % 10000; //4\r\n        data.pushOpenNumberList(number); //\r\n        emit GetDraw(number); //\r\n    }\r\n\r\n    //    number     period\r\n    function exchange(uint256 number,uint256 period) public needPause returns(uint256){  //\r\n        uint256[] memory tempList = data.getOpenNumberList(); //\r\n        uint256 openNumber = tempList[period]; //period\r\n        uint256 bigPrize = data.getBigPrize(); //\r\n        uint256 smallPrize = data.getSmallPrize(); //\r\n        uint256 totalPrize = 0;\r\n        Data.lotteryInfo[] memory tempInfos = data.getSelectedTickets(msg.sender,period); //period\r\n        for (uint256 index = 0; index < tempInfos.length; index++) {  //\r\n            uint256 ownerNumber = tempInfos[index].number;\r\n            if(ownerNumber == number){    //\r\n                if(tempInfos[index].exchangeStatus) //\r\n                        continue;\r\n                data.setExchangeStatus(msg.sender,period,index,true); //\r\n                if(number == openNumber){   //\r\n                    uint256 prize = bigPrize * tempInfos[index].quantity;\r\n                    payable(msg.sender).transfer(prize); //\r\n                    data.setWinStatus(msg.sender,period,index,1); //\r\n                    totalPrize += prize;\r\n                    emit GetExchange(msg.sender,number,tempInfos[index].quantity,prize); //\r\n                } else if((openNumber % 1000 == ownerNumber % 1000)  //33\r\n                          || (openNumber % 1000 == ownerNumber / 10)       //33\r\n                          || (openNumber / 10 == ownerNumber % 1000)       //33\r\n                          || (openNumber / 10 == ownerNumber / 10)){          //33\r\n                    uint256 prize = smallPrize * tempInfos[index].quantity;\r\n                    payable(msg.sender).transfer(prize); //\r\n                    data.setWinStatus(msg.sender,period,index,2); //\r\n                    totalPrize += prize;\r\n                    emit GetExchange(msg.sender,number,tempInfos[index].quantity,prize); //\r\n                }\r\n                else\r\n                {\r\n                    data.setWinStatus(msg.sender,period,index,0); //\r\n                }\r\n            }\r\n        }\r\n\r\n        return totalPrize;\r\n    }\r\n\r\n    //\r\n    function setTicketTemp(uint256 period,uint256 number) public onlyOwner{\r\n        data.pushTickets(msg.sender, period, number, 1, 0);\r\n    }\r\n\r\n    receive() external payable {}\r\n\r\n}",
  "sourcePath": "F:/testproject/caipiao/src/contracts/Lottery.sol",
  "compiler": {
    "name": "solc",
    "version": "0.8.0+commit.c7dfd78e.Emscripten.clang"
  },
  "schemaVersion": "3.4.1",
  "updatedAt": "2021-06-30T10:22:04.687Z",
  "networkType": "ethereum",
  "devdoc": {
    "kind": "dev",
    "methods": {
      "owner()": {
        "details": "Returns the address of the current owner."
      },
      "renounceOwnership()": {
        "details": "Leaves the contract without owner. It will not be possible to call `onlyOwner` functions anymore. Can only be called by the current owner. NOTE: Renouncing ownership will leave the contract without an owner, thereby removing any functionality that is only available to the owner."
      },
      "transferOwnership(address)": {
        "details": "Transfers ownership of the contract to a new account (`newOwner`). Can only be called by the current owner."
      }
    },
    "version": 1
  },
  "userdoc": {
    "kind": "user",
    "methods": {},
    "version": 1
  }
}